{
  "_format": "hh-sol-artifact-1",
  "contractName": "TokenExchange",
  "sourceName": "contracts/exchange.sol",
  "abi": [
    {
      "inputs": [],
      "stateMutability": "nonpayable",
      "type": "constructor"
    },
    {
      "anonymous": false,
      "inputs": [
        {
          "indexed": true,
          "internalType": "address",
          "name": "previousOwner",
          "type": "address"
        },
        {
          "indexed": true,
          "internalType": "address",
          "name": "newOwner",
          "type": "address"
        }
      ],
      "name": "OwnershipTransferred",
      "type": "event"
    },
    {
      "anonymous": false,
      "inputs": [
        {
          "indexed": false,
          "internalType": "uint256",
          "name": "message",
          "type": "uint256"
        }
      ],
      "name": "SwapTokensForETHEvent",
      "type": "event"
    },
    {
      "inputs": [
        {
          "internalType": "uint256",
          "name": "max_token_eth_ex_rate",
          "type": "uint256"
        },
        {
          "internalType": "uint256",
          "name": "min_token_eth_ex_rate",
          "type": "uint256"
        }
      ],
      "name": "addLiquidity",
      "outputs": [],
      "stateMutability": "payable",
      "type": "function"
    },
    {
      "inputs": [
        {
          "internalType": "uint256",
          "name": "amountTokens",
          "type": "uint256"
        }
      ],
      "name": "createPool",
      "outputs": [],
      "stateMutability": "payable",
      "type": "function"
    },
    {
      "inputs": [],
      "name": "exchange_name",
      "outputs": [
        {
          "internalType": "string",
          "name": "",
          "type": "string"
        }
      ],
      "stateMutability": "view",
      "type": "function"
    },
    {
      "inputs": [],
      "name": "getSwapFee",
      "outputs": [
        {
          "internalType": "uint256",
          "name": "",
          "type": "uint256"
        },
        {
          "internalType": "uint256",
          "name": "",
          "type": "uint256"
        }
      ],
      "stateMutability": "view",
      "type": "function"
    },
    {
      "inputs": [],
      "name": "owner",
      "outputs": [
        {
          "internalType": "address",
          "name": "",
          "type": "address"
        }
      ],
      "stateMutability": "view",
      "type": "function"
    },
    {
      "inputs": [
        {
          "internalType": "uint256",
          "name": "max_token_eth_ex_rate",
          "type": "uint256"
        },
        {
          "internalType": "uint256",
          "name": "min_token_eth_ex_rate",
          "type": "uint256"
        },
        {
          "internalType": "bool",
          "name": "extraCreditMode",
          "type": "bool"
        }
      ],
      "name": "removeAllLiquidity",
      "outputs": [],
      "stateMutability": "payable",
      "type": "function"
    },
    {
      "inputs": [
        {
          "internalType": "uint256",
          "name": "amountETH",
          "type": "uint256"
        },
        {
          "internalType": "uint256",
          "name": "max_token_eth_ex_rate",
          "type": "uint256"
        },
        {
          "internalType": "uint256",
          "name": "min_token_eth_ex_rate",
          "type": "uint256"
        },
        {
          "internalType": "bool",
          "name": "extraCreditMode",
          "type": "bool"
        }
      ],
      "name": "removeLiquidity",
      "outputs": [],
      "stateMutability": "payable",
      "type": "function"
    },
    {
      "inputs": [],
      "name": "renounceOwnership",
      "outputs": [],
      "stateMutability": "nonpayable",
      "type": "function"
    },
    {
      "inputs": [
        {
          "internalType": "uint256",
          "name": "max_exchange_rate",
          "type": "uint256"
        }
      ],
      "name": "swapETHForTokens",
      "outputs": [],
      "stateMutability": "payable",
      "type": "function"
    },
    {
      "inputs": [
        {
          "internalType": "uint256",
          "name": "amountTokens",
          "type": "uint256"
        },
        {
          "internalType": "uint256",
          "name": "max_exchange_rate",
          "type": "uint256"
        }
      ],
      "name": "swapTokensForETH",
      "outputs": [],
      "stateMutability": "payable",
      "type": "function"
    },
    {
      "inputs": [],
      "name": "token",
      "outputs": [
        {
          "internalType": "contract Token",
          "name": "",
          "type": "address"
        }
      ],
      "stateMutability": "view",
      "type": "function"
    },
    {
      "inputs": [
        {
          "internalType": "address",
          "name": "newOwner",
          "type": "address"
        }
      ],
      "name": "transferOwnership",
      "outputs": [],
      "stateMutability": "nonpayable",
      "type": "function"
    }
  ],
  "bytecode": "0x60806040526040518060400160405280600981526020017f6373323531737761700000000000000000000000000000000000000000000000815250600190816200004a9190620004a7565b50735fbdb2315678afecb367f032d93f642f64180aa3600260016101000a81548173ffffffffffffffffffffffffffffffffffffffff021916908373ffffffffffffffffffffffffffffffffffffffff160217905550600260019054906101000a900473ffffffffffffffffffffffffffffffffffffffff16600360006101000a81548173ffffffffffffffffffffffffffffffffffffffff021916908373ffffffffffffffffffffffffffffffffffffffff16021790555060006004556000600555600060065560006007556000600c556003600d556064600e55620186a06010553480156200013a57600080fd5b506200015b6200014f6200016160201b60201c565b6200016960201b60201c565b6200058e565b600033905090565b60008060009054906101000a900473ffffffffffffffffffffffffffffffffffffffff169050816000806101000a81548173ffffffffffffffffffffffffffffffffffffffff021916908373ffffffffffffffffffffffffffffffffffffffff1602179055508173ffffffffffffffffffffffffffffffffffffffff168173ffffffffffffffffffffffffffffffffffffffff167f8be0079c531659141344cd1fd0a4f28419497f9722a3daafe3b4186f6b6457e060405160405180910390a35050565b600081519050919050565b7f4e487b7100000000000000000000000000000000000000000000000000000000600052604160045260246000fd5b7f4e487b7100000000000000000000000000000000000000000000000000000000600052602260045260246000fd5b60006002820490506001821680620002af57607f821691505b602082108103620002c557620002c462000267565b5b50919050565b60008190508160005260206000209050919050565b60006020601f8301049050919050565b600082821b905092915050565b6000600883026200032f7fffffffffffffffffffffffffffffffffffffffffffffffffffffffffffffffff82620002f0565b6200033b8683620002f0565b95508019841693508086168417925050509392505050565b6000819050919050565b6000819050919050565b600062000388620003826200037c8462000353565b6200035d565b62000353565b9050919050565b6000819050919050565b620003a48362000367565b620003bc620003b3826200038f565b848454620002fd565b825550505050565b600090565b620003d3620003c4565b620003e081848462000399565b505050565b5b818110156200040857620003fc600082620003c9565b600181019050620003e6565b5050565b601f82111562000457576200042181620002cb565b6200042c84620002e0565b810160208510156200043c578190505b620004546200044b85620002e0565b830182620003e5565b50505b505050565b600082821c905092915050565b60006200047c600019846008026200045c565b1980831691505092915050565b600062000497838362000469565b9150826002028217905092915050565b620004b2826200022d565b67ffffffffffffffff811115620004ce57620004cd62000238565b5b620004da825462000296565b620004e78282856200040c565b600060209050601f8311600181146200051f57600084156200050a578287015190505b62000516858262000489565b86555062000586565b601f1984166200052f86620002cb565b60005b82811015620005595784890151825560018201915060208501945060208101905062000532565b8683101562000579578489015162000575601f89168262000469565b8355505b6001600288020188555050505b505050505050565b613595806200059e6000396000f3fe6080604052600436106100a75760003560e01c8063a22280a611610064578063a22280a61461015e578063b46d4b051461017a578063d4cadf6814610196578063f2fde38b146101c2578063f694f7d1146101eb578063fc0c546a14610216576100a7565b8063221a156a146100ac5780632eab2841146100c8578063715018a6146100e45780638259e6a0146100fb5780638da5cb5b146101175780639cd441da14610142575b600080fd5b6100c660048036038101906100c1919061258f565b610241565b005b6100e260048036038101906100dd91906125f6565b610998565b005b3480156100f057600080fd5b506100f9610cdb565b005b610115600480360381019061011091906125f6565b610cef565b005b34801561012357600080fd5b5061012c61109f565b6040516101399190612664565b60405180910390f35b61015c6004803603810190610157919061267f565b6110c8565b005b6101786004803603810190610173919061267f565b6115c5565b005b610194600480360381019061018f91906126bf565b611952565b005b3480156101a257600080fd5b506101ab611fdf565b6040516101b9929190612721565b60405180910390f35b3480156101ce57600080fd5b506101e960048036038101906101e49190612776565b611ff0565b005b3480156101f757600080fd5b50610200612073565b60405161020d9190612833565b60405180910390f35b34801561022257600080fd5b5061022b612101565b60405161023891906128b4565b60405180910390f35b8282600061024d612127565b9050828110610291576040517f08c379a00000000000000000000000000000000000000000000000000000000081526004016102889061291b565b60405180910390fd5b8181116102d3576040517f08c379a00000000000000000000000000000000000000000000000000000000081526004016102ca90612987565b60405180910390fd5b600260009054906101000a900460ff1615610323576040517f08c379a000000000000000000000000000000000000000000000000000000000815260040161031a906129f3565b60405180910390fd5b6001600260006101000a81548160ff0219169083151502179055506000600860003373ffffffffffffffffffffffffffffffffffffffff1673ffffffffffffffffffffffffffffffffffffffff168152602001908152602001600020549050600c54816005546103939190612a42565b61039d9190612ab3565b8811156103df576040517f08c379a00000000000000000000000000000000000000000000000000000000081526004016103d690612b56565b60405180910390fd5b60006005546004548a6103f29190612a42565b6103fc9190612ab3565b90506000600360009054906101000a900473ffffffffffffffffffffffffffffffffffffffff1673ffffffffffffffffffffffffffffffffffffffff1663a9059cbb33846040518363ffffffff1660e01b815260040161045d929190612b76565b6020604051808303816000875af115801561047c573d6000803e3d6000fd5b505050506040513d601f19601f820116820180604052508101906104a09190612bb4565b9050806104b0576104af612be1565b5b3373ffffffffffffffffffffffffffffffffffffffff166108fc8b9081150290604051600060405180830381858888f193505050501580156104f6573d6000803e3d6000fd5b50600080881561061a5760006005548d600c546105139190612a42565b61051d9190612ab3565b90506000600860003373ffffffffffffffffffffffffffffffffffffffff1673ffffffffffffffffffffffffffffffffffffffff1681526020019081526020016000205490508082600b60003373ffffffffffffffffffffffffffffffffffffffff1673ffffffffffffffffffffffffffffffffffffffff168152602001908152602001600020546105af9190612a42565b6105b99190612ab3565b93508082600a60003373ffffffffffffffffffffffffffffffffffffffff1673ffffffffffffffffffffffffffffffffffffffff168152602001908152602001600020546106079190612a42565b6106119190612ab3565b92505050610655565b6005548c60075461062b9190612a42565b6106359190612ab3565b91506005548c6006546106489190612a42565b6106529190612ab3565b90505b6000600360009054906101000a900473ffffffffffffffffffffffffffffffffffffffff1673ffffffffffffffffffffffffffffffffffffffff1663a9059cbb33846040518363ffffffff1660e01b81526004016106b4929190612b76565b6020604051808303816000875af11580156106d3573d6000803e3d6000fd5b505050506040513d601f19601f820116820180604052508101906106f79190612bb4565b90508061070757610706612be1565b5b3373ffffffffffffffffffffffffffffffffffffffff166108fc849081150290604051600060405180830381858888f1935050505015801561074d573d6000803e3d6000fd5b508460045461075c9190612c10565b6004819055506001600454116107a7576040517f08c379a000000000000000000000000000000000000000000000000000000000815260040161079e90612cb6565b60405180910390fd5b8c6005546107b59190612c10565b600581905550670de0b6b3a764000060055411610807576040517f08c379a00000000000000000000000000000000000000000000000000000000081526004016107fe90612d48565b60405180910390fd5b816006546108159190612c10565b600681905550826007546108299190612c10565b60078190555060006005548e600c546108429190612a42565b61084c9190612ab3565b9050610896600860003373ffffffffffffffffffffffffffffffffffffffff1673ffffffffffffffffffffffffffffffffffffffff1681526020019081526020016000205461215e565b61089f8161215e565b80600860003373ffffffffffffffffffffffffffffffffffffffff1673ffffffffffffffffffffffffffffffffffffffff168152602001908152602001600020546108ea9190612c10565b600860003373ffffffffffffffffffffffffffffffffffffffff1673ffffffffffffffffffffffffffffffffffffffff1681526020019081526020016000208190555080600c5461093b9190612c10565b600c819055508d60055461094f9190612c10565b8660045461095d9190612c10565b6109679190612a42565b600f81905550505050505050506000600260006101000a81548160ff02191690831515021790555050505050505050565b600260009054906101000a900460ff16156109e8576040517f08c379a00000000000000000000000000000000000000000000000000000000081526004016109df906129f3565b60405180910390fd5b6001600260006101000a81548160ff0219169083151502179055506000610a0d6121f7565b9050818110610a51576040517f08c379a0000000000000000000000000000000000000000000000000000000008152600401610a4890612e00565b60405180910390fd5b6000600e54610a5e61222e565b34610a699190612a42565b610a739190612ab3565b905060008134610a839190612c10565b9050600082600554610a959190612e20565b60045484610aa39190612a42565b610aad9190612ab3565b90506000600360009054906101000a900473ffffffffffffffffffffffffffffffffffffffff1673ffffffffffffffffffffffffffffffffffffffff1663a9059cbb33846040518363ffffffff1660e01b8152600401610b0e929190612b76565b6020604051808303816000875af1158015610b2d573d6000803e3d6000fd5b505050506040513d601f19601f82011682018060405250810190610b519190612bb4565b905080610b6157610b60612be1565b5b81600454610b6f9190612c10565b60048190555083600554610b839190612e20565b60058190555082600754610b979190612e20565b60078190555060005b600980549050811015610cb757600060098281548110610bc357610bc2612e54565b5b9060005260206000200160009054906101000a900473ffffffffffffffffffffffffffffffffffffffff1690506000600c54600860008473ffffffffffffffffffffffffffffffffffffffff1673ffffffffffffffffffffffffffffffffffffffff1681526020019081526020016000205487610c409190612a42565b610c4a9190612ab3565b905080600b60008473ffffffffffffffffffffffffffffffffffffffff1673ffffffffffffffffffffffffffffffffffffffff1681526020019081526020016000206000828254610c9b9190612e20565b9250508190555050508080610caf90612e83565b915050610ba0565b5050505050506000600260006101000a81548160ff02191690831515021790555050565b610ce3612245565b610ced60006122c3565b565b610cf7612245565b600060045414610d3c576040517f08c379a0000000000000000000000000000000000000000000000000000000008152600401610d3390612f17565b60405180910390fd5b600060055414610d81576040517f08c379a0000000000000000000000000000000000000000000000000000000008152600401610d7890612f83565b60405180910390fd5b60003411610dc4576040517f08c379a0000000000000000000000000000000000000000000000000000000008152600401610dbb90612fef565b60405180910390fd5b6000600360009054906101000a900473ffffffffffffffffffffffffffffffffffffffff1673ffffffffffffffffffffffffffffffffffffffff166370a08231336040518263ffffffff1660e01b8152600401610e219190612664565b602060405180830381865afa158015610e3e573d6000803e3d6000fd5b505050506040513d601f19601f82011682018060405250810190610e629190613024565b905080821115610ea7576040517f08c379a0000000000000000000000000000000000000000000000000000000008152600401610e9e906130c3565b60405180910390fd5b60008211610eea576040517f08c379a0000000000000000000000000000000000000000000000000000000008152600401610ee19061312f565b60405180910390fd5b600360009054906101000a900473ffffffffffffffffffffffffffffffffffffffff1673ffffffffffffffffffffffffffffffffffffffff166323b872dd3330856040518463ffffffff1660e01b8152600401610f499392919061314f565b6020604051808303816000875af1158015610f68573d6000803e3d6000fd5b505050506040513d601f19601f82011682018060405250810190610f8c9190612bb4565b50600360009054906101000a900473ffffffffffffffffffffffffffffffffffffffff1673ffffffffffffffffffffffffffffffffffffffff166370a08231306040518263ffffffff1660e01b8152600401610fe89190612664565b602060405180830381865afa158015611005573d6000803e3d6000fd5b505050506040513d601f19601f820116820180604052508101906110299190613024565b600481905550346005819055506005546004546110469190612a42565b600f81905550620186a0600c819055506064600860003373ffffffffffffffffffffffffffffffffffffffff1673ffffffffffffffffffffffffffffffffffffffff168152602001908152602001600020819055505050565b60008060009054906101000a900473ffffffffffffffffffffffffffffffffffffffff16905090565b818160006110d4612127565b9050828110611118576040517f08c379a000000000000000000000000000000000000000000000000000000000815260040161110f9061291b565b60405180910390fd5b81811161115a576040517f08c379a000000000000000000000000000000000000000000000000000000000815260040161115190612987565b60405180910390fd5b600260009054906101000a900460ff16156111aa576040517f08c379a00000000000000000000000000000000000000000000000000000000081526004016111a1906129f3565b60405180910390fd5b6001600260006101000a81548160ff0219169083151502179055506000600554600454346111d89190612a42565b6111e29190612ab3565b90506000600360009054906101000a900473ffffffffffffffffffffffffffffffffffffffff1673ffffffffffffffffffffffffffffffffffffffff166370a08231336040518263ffffffff1660e01b81526004016112419190612664565b602060405180830381865afa15801561125e573d6000803e3d6000fd5b505050506040513d601f19601f820116820180604052508101906112829190613024565b9050808211156112c7576040517f08c379a00000000000000000000000000000000000000000000000000000000081526004016112be9061321e565b60405180910390fd5b6000600360009054906101000a900473ffffffffffffffffffffffffffffffffffffffff1673ffffffffffffffffffffffffffffffffffffffff166323b872dd3330866040518463ffffffff1660e01b81526004016113289392919061314f565b6020604051808303816000875af1158015611347573d6000803e3d6000fd5b505050506040513d601f19601f8201168201806040525081019061136b9190612bb4565b90508061137b5761137a612be1565b5b600454836113899190612e20565b6004819055506005543461139d9190612e20565b600581905550600060055434600c546113b69190612a42565b6113c09190612ab3565b90506000600860003373ffffffffffffffffffffffffffffffffffffffff1673ffffffffffffffffffffffffffffffffffffffff16815260200190815260200160002054905081816114129190612e20565b600860003373ffffffffffffffffffffffffffffffffffffffff1673ffffffffffffffffffffffffffffffffffffffff1681526020019081526020016000208190555081600c546114639190612e20565b600c81905550600554346114779190612e20565b600454866114859190612e20565b61148f9190612a42565b600f819055506000805b60098054905081101561153357600981815481106114ba576114b9612e54565b5b9060005260206000200160009054906101000a900473ffffffffffffffffffffffffffffffffffffffff1673ffffffffffffffffffffffffffffffffffffffff163373ffffffffffffffffffffffffffffffffffffffff16036115205760019150611533565b808061152b90612e83565b915050611499565b508061159d576009339080600181540180825580915050600190039060005260206000200160009091909190916101000a81548173ffffffffffffffffffffffffffffffffffffffff021916908373ffffffffffffffffffffffffffffffffffffffff1602179055505b5050505050506000600260006101000a81548160ff0219169083151502179055505050505050565b600260009054906101000a900460ff1615611615576040517f08c379a000000000000000000000000000000000000000000000000000000000815260040161160c906129f3565b60405180910390fd5b6001600260006101000a81548160ff021916908315150217905550600061163a612127565b905081811061167e576040517f08c379a0000000000000000000000000000000000000000000000000000000008152600401611675906132d6565b60405180910390fd5b6000600e5461168b61222e565b856116969190612a42565b6116a09190612ab3565b9050600081856116b09190612c10565b90506000826004546116c29190612e20565b600554846116d09190612a42565b6116da9190612ab3565b90506000600360009054906101000a900473ffffffffffffffffffffffffffffffffffffffff1673ffffffffffffffffffffffffffffffffffffffff166323b872dd33308a6040518463ffffffff1660e01b815260040161173d9392919061314f565b6020604051808303816000875af115801561175c573d6000803e3d6000fd5b505050506040513d601f19601f820116820180604052508101906117809190612bb4565b9050806117905761178f612be1565b5b3373ffffffffffffffffffffffffffffffffffffffff166108fc839081150290604051600060405180830381858888f193505050501580156117d6573d6000803e3d6000fd5b50836004546117e59190612e20565b600481905550816005546117f99190612c10565b6005819055508260065461180d9190612e20565b60068190555060005b60098054905081101561192d5760006009828154811061183957611838612e54565b5b9060005260206000200160009054906101000a900473ffffffffffffffffffffffffffffffffffffffff1690506000600c54600860008473ffffffffffffffffffffffffffffffffffffffff1673ffffffffffffffffffffffffffffffffffffffff16815260200190815260200160002054876118b69190612a42565b6118c09190612ab3565b905080600a60008473ffffffffffffffffffffffffffffffffffffffff1673ffffffffffffffffffffffffffffffffffffffff16815260200190815260200160002060008282546119119190612e20565b925050819055505050808061192590612e83565b915050611816565b5050505050506000600260006101000a81548160ff0219169083151502179055505050565b8282600061195e612127565b90508281106119a2576040517f08c379a00000000000000000000000000000000000000000000000000000000081526004016119999061291b565b60405180910390fd5b8181116119e4576040517f08c379a00000000000000000000000000000000000000000000000000000000081526004016119db90612987565b60405180910390fd5b600260009054906101000a900460ff1615611a34576040517f08c379a0000000000000000000000000000000000000000000000000000000008152600401611a2b906129f3565b60405180910390fd5b6001600260006101000a81548160ff0219169083151502179055506000600860003373ffffffffffffffffffffffffffffffffffffffff1673ffffffffffffffffffffffffffffffffffffffff1681526020019081526020016000205490506000600c5482600554611aa69190612a42565b611ab09190612ab3565b90506000600c5483600454611ac59190612a42565b611acf9190612ab3565b90506000600360009054906101000a900473ffffffffffffffffffffffffffffffffffffffff1673ffffffffffffffffffffffffffffffffffffffff1663a9059cbb33846040518363ffffffff1660e01b8152600401611b30929190612b76565b6020604051808303816000875af1158015611b4f573d6000803e3d6000fd5b505050506040513d601f19601f82011682018060405250810190611b739190612bb4565b905080611b8357611b82612be1565b5b3373ffffffffffffffffffffffffffffffffffffffff166108fc849081150290604051600060405180830381858888f19350505050158015611bc9573d6000803e3d6000fd5b506000808915611d0457600b60003373ffffffffffffffffffffffffffffffffffffffff1673ffffffffffffffffffffffffffffffffffffffff168152602001908152602001600020549150600a60003373ffffffffffffffffffffffffffffffffffffffff1673ffffffffffffffffffffffffffffffffffffffff1681526020019081526020016000205490506000805b600980549050811015611cf45760098181548110611c7c57611c7b612e54565b5b9060005260206000200160009054906101000a900473ffffffffffffffffffffffffffffffffffffffff1673ffffffffffffffffffffffffffffffffffffffff163373ffffffffffffffffffffffffffffffffffffffff1603611ce157809150611cf4565b8080611cec90612e83565b915050611c5b565b50611cfe81612387565b50611d3f565b600c5486600754611d159190612a42565b611d1f9190612ab3565b9150600c5486600654611d329190612a42565b611d3c9190612ab3565b90505b6000600360009054906101000a900473ffffffffffffffffffffffffffffffffffffffff1673ffffffffffffffffffffffffffffffffffffffff1663a9059cbb33846040518363ffffffff1660e01b8152600401611d9e929190612b76565b6020604051808303816000875af1158015611dbd573d6000803e3d6000fd5b505050506040513d601f19601f82011682018060405250810190611de19190612bb4565b905080611df157611df0612be1565b5b3373ffffffffffffffffffffffffffffffffffffffff166108fc849081150290604051600060405180830381858888f19350505050158015611e37573d6000803e3d6000fd5b5084600454611e469190612c10565b600481905550600160045411611e91576040517f08c379a0000000000000000000000000000000000000000000000000000000008152600401611e8890612cb6565b60405180910390fd5b85600554611e9f9190612c10565b600581905550670de0b6b3a764000060055411611ef1576040517f08c379a0000000000000000000000000000000000000000000000000000000008152600401611ee890612d48565b60405180910390fd5b600860003373ffffffffffffffffffffffffffffffffffffffff1673ffffffffffffffffffffffffffffffffffffffff16815260200190815260200160002054600c54611f3e9190612c10565b600c819055506000600860003373ffffffffffffffffffffffffffffffffffffffff1673ffffffffffffffffffffffffffffffffffffffff1681526020019081526020016000208190555085600554611f979190612c10565b85600454611fa59190612c10565b611faf9190612a42565b600f81905550505050505050506000600260006101000a81548160ff021916908315150217905550505050505050565b600080600d54600e54915091509091565b611ff8612245565b600073ffffffffffffffffffffffffffffffffffffffff168173ffffffffffffffffffffffffffffffffffffffff1603612067576040517f08c379a000000000000000000000000000000000000000000000000000000000815260040161205e90613368565b60405180910390fd5b612070816122c3565b50565b60018054612080906133b7565b80601f01602080910402602001604051908101604052809291908181526020018280546120ac906133b7565b80156120f95780601f106120ce576101008083540402835291602001916120f9565b820191906000526020600020905b8154815290600101906020018083116120dc57829003601f168201915b505050505081565b600360009054906101000a900473ffffffffffffffffffffffffffffffffffffffff1681565b6000600554670de0b6b3a76400006004546010546121459190612a42565b61214f9190612a42565b6121599190612ab3565b905090565b6121f48160405160240161217291906133e8565b6040516020818303038152906040527ff82c50f1000000000000000000000000000000000000000000000000000000007bffffffffffffffffffffffffffffffffffffffffffffffffffffffff19166020820180517bffffffffffffffffffffffffffffffffffffffffffffffffffffffff83818316178352505050506124c4565b50565b6000670de0b6b3a76400006004546005546010546122159190612a42565b61221f9190612ab3565b6122299190612ab3565b905090565b6000600d54600e546122409190612c10565b905090565b61224d6124de565b73ffffffffffffffffffffffffffffffffffffffff1661226b61109f565b73ffffffffffffffffffffffffffffffffffffffff16146122c1576040517f08c379a00000000000000000000000000000000000000000000000000000000081526004016122b89061344f565b60405180910390fd5b565b60008060009054906101000a900473ffffffffffffffffffffffffffffffffffffffff169050816000806101000a81548173ffffffffffffffffffffffffffffffffffffffff021916908373ffffffffffffffffffffffffffffffffffffffff1602179055508173ffffffffffffffffffffffffffffffffffffffff168173ffffffffffffffffffffffffffffffffffffffff167f8be0079c531659141344cd1fd0a4f28419497f9722a3daafe3b4186f6b6457e060405160405180910390a35050565b60098054905081106123ce576040517f08c379a00000000000000000000000000000000000000000000000000000000081526004016123c5906134e1565b60405180910390fd5b600960016009805490506123e29190612c10565b815481106123f3576123f2612e54565b5b9060005260206000200160009054906101000a900473ffffffffffffffffffffffffffffffffffffffff166009828154811061243257612431612e54565b5b9060005260206000200160006101000a81548173ffffffffffffffffffffffffffffffffffffffff021916908373ffffffffffffffffffffffffffffffffffffffff160217905550600980548061248c5761248b613501565b5b6001900381819060005260206000200160006101000a81549073ffffffffffffffffffffffffffffffffffffffff0219169055905550565b6124db816124d36124e6612507565b63ffffffff16565b50565b600033905090565b60006a636f6e736f6c652e6c6f679050600080835160208501845afa505050565b612512819050919050565b61251a613530565b565b600080fd5b6000819050919050565b61253481612521565b811461253f57600080fd5b50565b6000813590506125518161252b565b92915050565b60008115159050919050565b61256c81612557565b811461257757600080fd5b50565b60008135905061258981612563565b92915050565b600080600080608085870312156125a9576125a861251c565b5b60006125b787828801612542565b94505060206125c887828801612542565b93505060406125d987828801612542565b92505060606125ea8782880161257a565b91505092959194509250565b60006020828403121561260c5761260b61251c565b5b600061261a84828501612542565b91505092915050565b600073ffffffffffffffffffffffffffffffffffffffff82169050919050565b600061264e82612623565b9050919050565b61265e81612643565b82525050565b60006020820190506126796000830184612655565b92915050565b600080604083850312156126965761269561251c565b5b60006126a485828601612542565b92505060206126b585828601612542565b9150509250929050565b6000806000606084860312156126d8576126d761251c565b5b60006126e686828701612542565b93505060206126f786828701612542565b92505060406127088682870161257a565b9150509250925092565b61271b81612521565b82525050565b60006040820190506127366000830185612712565b6127436020830184612712565b9392505050565b61275381612643565b811461275e57600080fd5b50565b6000813590506127708161274a565b92915050565b60006020828403121561278c5761278b61251c565b5b600061279a84828501612761565b91505092915050565b600081519050919050565b600082825260208201905092915050565b60005b838110156127dd5780820151818401526020810190506127c2565b60008484015250505050565b6000601f19601f8301169050919050565b6000612805826127a3565b61280f81856127ae565b935061281f8185602086016127bf565b612828816127e9565b840191505092915050565b6000602082019050818103600083015261284d81846127fa565b905092915050565b6000819050919050565b600061287a61287561287084612623565b612855565b612623565b9050919050565b600061288c8261285f565b9050919050565b600061289e82612881565b9050919050565b6128ae81612893565b82525050565b60006020820190506128c960008301846128a5565b92915050565b7f65786368616e6765207261746520746f6f206869676800000000000000000000600082015250565b60006129056016836127ae565b9150612910826128cf565b602082019050919050565b60006020820190508181036000830152612934816128f8565b9050919050565b7f65786368616e6765207261746520746f6f206c6f770000000000000000000000600082015250565b60006129716015836127ae565b915061297c8261293b565b602082019050919050565b600060208201905081810360008301526129a081612964565b9050919050565b7f5265656e7472616e637920646574656374656400000000000000000000000000600082015250565b60006129dd6013836127ae565b91506129e8826129a7565b602082019050919050565b60006020820190508181036000830152612a0c816129d0565b9050919050565b7f4e487b7100000000000000000000000000000000000000000000000000000000600052601160045260246000fd5b6000612a4d82612521565b9150612a5883612521565b9250828202612a6681612521565b91508282048414831517612a7d57612a7c612a13565b5b5092915050565b7f4e487b7100000000000000000000000000000000000000000000000000000000600052601260045260246000fd5b6000612abe82612521565b9150612ac983612521565b925082612ad957612ad8612a84565b5b828204905092915050565b7f7573657220646f65736e2774206861766520656e6f756768207368617265732060008201527f6f6620706f6f6c20746f2072656d6f76654c6971756964697479000000000000602082015250565b6000612b40603a836127ae565b9150612b4b82612ae4565b604082019050919050565b60006020820190508181036000830152612b6f81612b33565b9050919050565b6000604082019050612b8b6000830185612655565b612b986020830184612712565b9392505050565b600081519050612bae81612563565b92915050565b600060208284031215612bca57612bc961251c565b5b6000612bd884828501612b9f565b91505092915050565b7f4e487b7100000000000000000000000000000000000000000000000000000000600052600160045260246000fd5b6000612c1b82612521565b9150612c2683612521565b9250828203905081811115612c3e57612c3d612a13565b5b92915050565b7f4e65656420746f206d616b652073757265207468657265206973206174206c6560008201527f617374203120746f6b656e20696e20706f6f6c00000000000000000000000000602082015250565b6000612ca06033836127ae565b9150612cab82612c44565b604082019050919050565b60006020820190508181036000830152612ccf81612c93565b9050919050565b7f4e65656420746f206d616b652073757265207468657265206973206174206c6560008201527f61737420312045544820696e20706f6c6c000000000000000000000000000000602082015250565b6000612d326031836127ae565b9150612d3d82612cd6565b604082019050919050565b60006020820190508181036000830152612d6181612d25565b9050919050565b7f746f6b656e2070726963652068617320696e63726561736564207369676e696660008201527f6963616e746c792e20536c6970706167652061626f727473207468652074726160208201527f6e73616374696f6e000000000000000000000000000000000000000000000000604082015250565b6000612dea6048836127ae565b9150612df582612d68565b606082019050919050565b60006020820190508181036000830152612e1981612ddd565b9050919050565b6000612e2b82612521565b9150612e3683612521565b9250828201905080821115612e4e57612e4d612a13565b5b92915050565b7f4e487b7100000000000000000000000000000000000000000000000000000000600052603260045260246000fd5b6000612e8e82612521565b91507fffffffffffffffffffffffffffffffffffffffffffffffffffffffffffffffff8203612ec057612ebf612a13565b5b600182019050919050565b7f546f6b656e20726573657276657320776173206e6f7420300000000000000000600082015250565b6000612f016018836127ae565b9150612f0c82612ecb565b602082019050919050565b60006020820190508181036000830152612f3081612ef4565b9050919050565b7f45544820726573657276657320776173206e6f7420302e000000000000000000600082015250565b6000612f6d6017836127ae565b9150612f7882612f37565b602082019050919050565b60006020820190508181036000830152612f9c81612f60565b9050919050565b7f4e6565642065746820746f2063726561746520706f6f6c2e0000000000000000600082015250565b6000612fd96018836127ae565b9150612fe482612fa3565b602082019050919050565b6000602082019050818103600083015261300881612fcc565b9050919050565b60008151905061301e8161252b565b92915050565b60006020828403121561303a5761303961251c565b5b60006130488482850161300f565b91505092915050565b7f4e6f74206861766520656e6f75676820746f6b656e7320746f2063726561746560008201527f2074686520706f6f6c0000000000000000000000000000000000000000000000602082015250565b60006130ad6029836127ae565b91506130b882613051565b604082019050919050565b600060208201905081810360008301526130dc816130a0565b9050919050565b7f4e65656420746f6b656e7320746f2063726561746520706f6f6c2e0000000000600082015250565b6000613119601b836127ae565b9150613124826130e3565b602082019050919050565b600060208201905081810360008301526131488161310c565b9050919050565b60006060820190506131646000830186612655565b6131716020830185612655565b61317e6040830184612712565b949350505050565b7f52656d61696e696e672062616c616e6365206f66207468652073656e6420697360008201527f206e6f7420656e6f75676820746f2070726f7669646520746865206c6971756960208201527f6469747900000000000000000000000000000000000000000000000000000000604082015250565b60006132086044836127ae565b915061321382613186565b606082019050919050565b60006020820190508181036000830152613237816131fb565b9050919050565b7f4574682070726963652068617320696e63726561736564207369676e6966696360008201527f616e746c792e20536c6970706167652061626f72747320746865207472616e7360208201527f616374696f6e0000000000000000000000000000000000000000000000000000604082015250565b60006132c06046836127ae565b91506132cb8261323e565b606082019050919050565b600060208201905081810360008301526132ef816132b3565b9050919050565b7f4f776e61626c653a206e6577206f776e657220697320746865207a65726f206160008201527f6464726573730000000000000000000000000000000000000000000000000000602082015250565b60006133526026836127ae565b915061335d826132f6565b604082019050919050565b6000602082019050818103600083015261338181613345565b9050919050565b7f4e487b7100000000000000000000000000000000000000000000000000000000600052602260045260246000fd5b600060028204905060018216806133cf57607f821691505b6020821081036133e2576133e1613388565b5b50919050565b60006020820190506133fd6000830184612712565b92915050565b7f4f776e61626c653a2063616c6c6572206973206e6f7420746865206f776e6572600082015250565b60006134396020836127ae565b915061344482613403565b602082019050919050565b600060208201905081810360008301526134688161342c565b9050919050565b7f73706563696669656420696e646578206973206c6172676572207468616e207460008201527f6865206e756d626572206f66206c707300000000000000000000000000000000602082015250565b60006134cb6030836127ae565b91506134d68261346f565b604082019050919050565b600060208201905081810360008301526134fa816134be565b9050919050565b7f4e487b7100000000000000000000000000000000000000000000000000000000600052603160045260246000fd5b7f4e487b7100000000000000000000000000000000000000000000000000000000600052605160045260246000fdfea26469706673582212209364a0e7e374232ef2d97f25ebc032d9e57c92cc336bdb71a08638bcc3a320b264736f6c63430008110033",
  "linkReferences": {},
  "deployedLinkReferences": {}
}