{
  "_format": "hh-sol-artifact-1",
  "contractName": "TokenExchange",
  "sourceName": "contracts/exchange.sol",
  "abi": [
    {
      "inputs": [],
      "stateMutability": "nonpayable",
      "type": "constructor"
    },
    {
      "anonymous": false,
      "inputs": [
        {
          "indexed": true,
          "internalType": "address",
          "name": "previousOwner",
          "type": "address"
        },
        {
          "indexed": true,
          "internalType": "address",
          "name": "newOwner",
          "type": "address"
        }
      ],
      "name": "OwnershipTransferred",
      "type": "event"
    },
    {
      "anonymous": false,
      "inputs": [
        {
          "indexed": false,
          "internalType": "uint256",
          "name": "message",
          "type": "uint256"
        }
      ],
      "name": "SwapTokensForETHEvent",
      "type": "event"
    },
    {
      "inputs": [
        {
          "internalType": "uint256",
          "name": "max_token_eth_ex_rate",
          "type": "uint256"
        },
        {
          "internalType": "uint256",
          "name": "min_token_eth_ex_rate",
          "type": "uint256"
        }
      ],
      "name": "addLiquidity",
      "outputs": [],
      "stateMutability": "payable",
      "type": "function"
    },
    {
      "inputs": [
        {
          "internalType": "uint256",
          "name": "amountTokens",
          "type": "uint256"
        }
      ],
      "name": "createPool",
      "outputs": [],
      "stateMutability": "payable",
      "type": "function"
    },
    {
      "inputs": [],
      "name": "exchange_name",
      "outputs": [
        {
          "internalType": "string",
          "name": "",
          "type": "string"
        }
      ],
      "stateMutability": "view",
      "type": "function"
    },
    {
      "inputs": [],
      "name": "getSwapFee",
      "outputs": [
        {
          "internalType": "uint256",
          "name": "",
          "type": "uint256"
        },
        {
          "internalType": "uint256",
          "name": "",
          "type": "uint256"
        }
      ],
      "stateMutability": "view",
      "type": "function"
    },
    {
      "inputs": [],
      "name": "owner",
      "outputs": [
        {
          "internalType": "address",
          "name": "",
          "type": "address"
        }
      ],
      "stateMutability": "view",
      "type": "function"
    },
    {
      "inputs": [
        {
          "internalType": "uint256",
          "name": "max_token_eth_ex_rate",
          "type": "uint256"
        },
        {
          "internalType": "uint256",
          "name": "min_token_eth_ex_rate",
          "type": "uint256"
        }
      ],
      "name": "removeAllLiquidity",
      "outputs": [],
      "stateMutability": "payable",
      "type": "function"
    },
    {
      "inputs": [
        {
          "internalType": "uint256",
          "name": "amountETH",
          "type": "uint256"
        },
        {
          "internalType": "uint256",
          "name": "max_token_eth_ex_rate",
          "type": "uint256"
        },
        {
          "internalType": "uint256",
          "name": "min_token_eth_ex_rate",
          "type": "uint256"
        }
      ],
      "name": "removeLiquidity",
      "outputs": [],
      "stateMutability": "payable",
      "type": "function"
    },
    {
      "inputs": [],
      "name": "renounceOwnership",
      "outputs": [],
      "stateMutability": "nonpayable",
      "type": "function"
    },
    {
      "inputs": [
        {
          "internalType": "uint256",
          "name": "max_exchange_rate",
          "type": "uint256"
        }
      ],
      "name": "swapETHForTokens",
      "outputs": [],
      "stateMutability": "payable",
      "type": "function"
    },
    {
      "inputs": [
        {
          "internalType": "uint256",
          "name": "amountTokens",
          "type": "uint256"
        },
        {
          "internalType": "uint256",
          "name": "max_exchange_rate",
          "type": "uint256"
        }
      ],
      "name": "swapTokensForETH",
      "outputs": [],
      "stateMutability": "payable",
      "type": "function"
    },
    {
      "inputs": [],
      "name": "token",
      "outputs": [
        {
          "internalType": "contract Token",
          "name": "",
          "type": "address"
        }
      ],
      "stateMutability": "view",
      "type": "function"
    },
    {
      "inputs": [
        {
          "internalType": "address",
          "name": "newOwner",
          "type": "address"
        }
      ],
      "name": "transferOwnership",
      "outputs": [],
      "stateMutability": "nonpayable",
      "type": "function"
    }
  ],
  "bytecode": "0x60806040526040518060400160405280600981526020017f6373323531737761700000000000000000000000000000000000000000000000815250600190816200004a9190620004a7565b50735fbdb2315678afecb367f032d93f642f64180aa3600260016101000a81548173ffffffffffffffffffffffffffffffffffffffff021916908373ffffffffffffffffffffffffffffffffffffffff160217905550600260019054906101000a900473ffffffffffffffffffffffffffffffffffffffff16600360006101000a81548173ffffffffffffffffffffffffffffffffffffffff021916908373ffffffffffffffffffffffffffffffffffffffff16021790555060006004556000600555600060065560006007556000600a556003600b556064600c55620186a0600e553480156200013a57600080fd5b506200015b6200014f6200016160201b60201c565b6200016960201b60201c565b6200058e565b600033905090565b60008060009054906101000a900473ffffffffffffffffffffffffffffffffffffffff169050816000806101000a81548173ffffffffffffffffffffffffffffffffffffffff021916908373ffffffffffffffffffffffffffffffffffffffff1602179055508173ffffffffffffffffffffffffffffffffffffffff168173ffffffffffffffffffffffffffffffffffffffff167f8be0079c531659141344cd1fd0a4f28419497f9722a3daafe3b4186f6b6457e060405160405180910390a35050565b600081519050919050565b7f4e487b7100000000000000000000000000000000000000000000000000000000600052604160045260246000fd5b7f4e487b7100000000000000000000000000000000000000000000000000000000600052602260045260246000fd5b60006002820490506001821680620002af57607f821691505b602082108103620002c557620002c462000267565b5b50919050565b60008190508160005260206000209050919050565b60006020601f8301049050919050565b600082821b905092915050565b6000600883026200032f7fffffffffffffffffffffffffffffffffffffffffffffffffffffffffffffffff82620002f0565b6200033b8683620002f0565b95508019841693508086168417925050509392505050565b6000819050919050565b6000819050919050565b600062000388620003826200037c8462000353565b6200035d565b62000353565b9050919050565b6000819050919050565b620003a48362000367565b620003bc620003b3826200038f565b848454620002fd565b825550505050565b600090565b620003d3620003c4565b620003e081848462000399565b505050565b5b818110156200040857620003fc600082620003c9565b600181019050620003e6565b5050565b601f82111562000457576200042181620002cb565b6200042c84620002e0565b810160208510156200043c578190505b620004546200044b85620002e0565b830182620003e5565b50505b505050565b600082821c905092915050565b60006200047c600019846008026200045c565b1980831691505092915050565b600062000497838362000469565b9150826002028217905092915050565b620004b2826200022d565b67ffffffffffffffff811115620004ce57620004cd62000238565b5b620004da825462000296565b620004e78282856200040c565b600060209050601f8311600181146200051f57600084156200050a578287015190505b62000516858262000489565b86555062000586565b601f1984166200052f86620002cb565b60005b82811015620005595784890151825560018201915060208501945060208101905062000532565b8683101562000579578489015162000575601f89168262000469565b8355505b6001600288020188555050505b505050505050565b612e49806200059e6000396000f3fe6080604052600436106100a75760003560e01c80639cd441da116100645780639cd441da1461015e578063a22280a61461017a578063d4cadf6814610196578063f2fde38b146101c2578063f694f7d1146101eb578063fc0c546a14610216576100a7565b80632eab2841146100ac57806358ad6de4146100c8578063715018a6146100e45780638259e6a0146100fb578063857620e1146101175780638da5cb5b14610133575b600080fd5b6100c660048036038101906100c191906120a8565b610241565b005b6100e260048036038101906100dd91906120d5565b610469565b005b3480156100f057600080fd5b506100f961098a565b005b610115600480360381019061011091906120a8565b61099e565b005b610131600480360381019061012c9190612115565b610da7565b005b34801561013f57600080fd5b50610148611413565b60405161015591906121a9565b60405180910390f35b610178600480360381019061017391906120d5565b61143c565b005b610194600480360381019061018f91906120d5565b61188d565b005b3480156101a257600080fd5b506101ab611bd4565b6040516101b99291906121d3565b60405180910390f35b3480156101ce57600080fd5b506101e960048036038101906101e49190612228565b611be5565b005b3480156101f757600080fd5b50610200611c68565b60405161020d91906122e5565b60405180910390f35b34801561022257600080fd5b5061022b611cf6565b6040516102389190612366565b60405180910390f35b600260009054906101000a900460ff1615610291576040517f08c379a0000000000000000000000000000000000000000000000000000000008152600401610288906123cd565b60405180910390fd5b6001600260006101000a81548160ff02191690831515021790555060006102b6611d1c565b90508181106102fa576040517f08c379a00000000000000000000000000000000000000000000000000000000081526004016102f190612485565b60405180910390fd5b6000600c54610307611d53565b3461031291906124d4565b61031c9190612545565b90506000813461032c9190612576565b905060008260055461033e91906125aa565b6004548461034c91906124d4565b6103569190612545565b90506000600360009054906101000a900473ffffffffffffffffffffffffffffffffffffffff1673ffffffffffffffffffffffffffffffffffffffff1663a9059cbb33846040518363ffffffff1660e01b81526004016103b79291906125de565b6020604051808303816000875af11580156103d6573d6000803e3d6000fd5b505050506040513d601f19601f820116820180604052508101906103fa919061263f565b90508061040a5761040961266c565b5b816004546104189190612576565b6004819055508360055461042c91906125aa565b6005819055508260075461044091906125aa565b60078190555050505050506000600260006101000a81548160ff02191690831515021790555050565b81816000610475611d6a565b90506104986040518060600160405280603b8152602001612dd9603b9139611da1565b6104a181611e3a565b6104aa83611e3a565b6104b382611e3a565b6104d46040518060600160405280603b8152602001612dd9603b9139611da1565b828110610516576040517f08c379a000000000000000000000000000000000000000000000000000000000815260040161050d906126e7565b60405180910390fd5b818111610558576040517f08c379a000000000000000000000000000000000000000000000000000000000815260040161054f90612753565b60405180910390fd5b600260009054906101000a900460ff16156105a8576040517f08c379a000000000000000000000000000000000000000000000000000000000815260040161059f906123cd565b60405180910390fd5b6001600260006101000a81548160ff0219169083151502179055506000600860003373ffffffffffffffffffffffffffffffffffffffff1673ffffffffffffffffffffffffffffffffffffffff1681526020019081526020016000205490506000600a548260055461061a91906124d4565b6106249190612545565b90506000600a548360045461063991906124d4565b6106439190612545565b90506000600360009054906101000a900473ffffffffffffffffffffffffffffffffffffffff1673ffffffffffffffffffffffffffffffffffffffff1663a9059cbb33846040518363ffffffff1660e01b81526004016106a49291906125de565b6020604051808303816000875af11580156106c3573d6000803e3d6000fd5b505050506040513d601f19601f820116820180604052508101906106e7919061263f565b9050806106f7576106f661266c565b5b3373ffffffffffffffffffffffffffffffffffffffff166108fc849081150290604051600060405180830381858888f1935050505015801561073d573d6000803e3d6000fd5b506000600a548560075461075191906124d4565b61075b9190612545565b90506000600a548660065461077091906124d4565b61077a9190612545565b90506000600360009054906101000a900473ffffffffffffffffffffffffffffffffffffffff1673ffffffffffffffffffffffffffffffffffffffff1663a9059cbb33846040518363ffffffff1660e01b81526004016107db9291906125de565b6020604051808303816000875af11580156107fa573d6000803e3d6000fd5b505050506040513d601f19601f8201168201806040525081019061081e919061263f565b90508061082e5761082d61266c565b5b3373ffffffffffffffffffffffffffffffffffffffff166108fc849081150290604051600060405180830381858888f19350505050158015610874573d6000803e3d6000fd5b50846004546108839190612576565b600481905550856005546108979190612576565b600581905550600860003373ffffffffffffffffffffffffffffffffffffffff1673ffffffffffffffffffffffffffffffffffffffff16815260200190815260200160002054600a546108ea9190612576565b600a819055506000600860003373ffffffffffffffffffffffffffffffffffffffff1673ffffffffffffffffffffffffffffffffffffffff16815260200190815260200160002081905550856005546109439190612576565b856004546109519190612576565b61095b91906124d4565b600d81905550505050505050506000600260006101000a81548160ff0219169083151502179055505050505050565b610992611ed3565b61099c6000611f51565b565b6109a6611ed3565b6000600454146109eb576040517f08c379a00000000000000000000000000000000000000000000000000000000081526004016109e2906127bf565b60405180910390fd5b600060055414610a30576040517f08c379a0000000000000000000000000000000000000000000000000000000008152600401610a279061282b565b60405180910390fd5b60003411610a73576040517f08c379a0000000000000000000000000000000000000000000000000000000008152600401610a6a90612897565b60405180910390fd5b610ab16040518060400160405280600a81526020017f637265617465506f6f6c00000000000000000000000000000000000000000000815250611da1565b610aba34611e3a565b6000600360009054906101000a900473ffffffffffffffffffffffffffffffffffffffff1673ffffffffffffffffffffffffffffffffffffffff166370a08231336040518263ffffffff1660e01b8152600401610b1791906121a9565b602060405180830381865afa158015610b34573d6000803e3d6000fd5b505050506040513d601f19601f82011682018060405250810190610b5891906128cc565b9050610b6381611e3a565b610b6c82611e3a565b80821115610baf576040517f08c379a0000000000000000000000000000000000000000000000000000000008152600401610ba69061296b565b60405180910390fd5b60008211610bf2576040517f08c379a0000000000000000000000000000000000000000000000000000000008152600401610be9906129d7565b60405180910390fd5b600360009054906101000a900473ffffffffffffffffffffffffffffffffffffffff1673ffffffffffffffffffffffffffffffffffffffff166323b872dd3330856040518463ffffffff1660e01b8152600401610c51939291906129f7565b6020604051808303816000875af1158015610c70573d6000803e3d6000fd5b505050506040513d601f19601f82011682018060405250810190610c94919061263f565b50600360009054906101000a900473ffffffffffffffffffffffffffffffffffffffff1673ffffffffffffffffffffffffffffffffffffffff166370a08231306040518263ffffffff1660e01b8152600401610cf091906121a9565b602060405180830381865afa158015610d0d573d6000803e3d6000fd5b505050506040513d601f19601f82011682018060405250810190610d3191906128cc565b60048190555034600581905550600554600454610d4e91906124d4565b600d81905550620186a0600a819055506064600860003373ffffffffffffffffffffffffffffffffffffffff1673ffffffffffffffffffffffffffffffffffffffff168152602001908152602001600020819055505050565b81816000610db3611d6a565b9050610dd66040518060600160405280603b8152602001612dd9603b9139611da1565b610ddf81611e3a565b610de883611e3a565b610df182611e3a565b610e126040518060600160405280603b8152602001612dd9603b9139611da1565b828110610e54576040517f08c379a0000000000000000000000000000000000000000000000000000000008152600401610e4b906126e7565b60405180910390fd5b818111610e96576040517f08c379a0000000000000000000000000000000000000000000000000000000008152600401610e8d90612753565b60405180910390fd5b600260009054906101000a900460ff1615610ee6576040517f08c379a0000000000000000000000000000000000000000000000000000000008152600401610edd906123cd565b60405180910390fd5b6001600260006101000a81548160ff0219169083151502179055506000600860003373ffffffffffffffffffffffffffffffffffffffff1673ffffffffffffffffffffffffffffffffffffffff168152602001908152602001600020549050610f836040518060400160405280601f81526020017f3d3d3d3d3d3d2072656d6f76654c6971756964697479203d3d3d3d3d3d3d3d00815250611da1565b610f8c87611e3a565b610faf600a5482600554610fa091906124d4565b610faa9190612545565b611e3a565b600a5481600554610fc091906124d4565b610fca9190612545565b87111561100c576040517f08c379a000000000000000000000000000000000000000000000000000000000815260040161100390612aa0565b60405180910390fd5b60006005546004548961101f91906124d4565b6110299190612545565b90506000600360009054906101000a900473ffffffffffffffffffffffffffffffffffffffff1673ffffffffffffffffffffffffffffffffffffffff1663a9059cbb33846040518363ffffffff1660e01b815260040161108a9291906125de565b6020604051808303816000875af11580156110a9573d6000803e3d6000fd5b505050506040513d601f19601f820116820180604052508101906110cd919061263f565b9050806110dd576110dc61266c565b5b3373ffffffffffffffffffffffffffffffffffffffff166108fc8a9081150290604051600060405180830381858888f19350505050158015611123573d6000803e3d6000fd5b5060006005548a60075461113791906124d4565b6111419190612545565b905060006005548b60065461115691906124d4565b6111609190612545565b90506000600360009054906101000a900473ffffffffffffffffffffffffffffffffffffffff1673ffffffffffffffffffffffffffffffffffffffff1663a9059cbb33846040518363ffffffff1660e01b81526004016111c19291906125de565b6020604051808303816000875af11580156111e0573d6000803e3d6000fd5b505050506040513d601f19601f82011682018060405250810190611204919061263f565b9050806112145761121361266c565b5b3373ffffffffffffffffffffffffffffffffffffffff166108fc849081150290604051600060405180830381858888f1935050505015801561125a573d6000803e3d6000fd5b50846004546112699190612576565b6004819055508b60055461127d9190612576565b600581905550816006546112919190612576565b600681905550826007546112a59190612576565b60078190555060006005548d600a546112be91906124d4565b6112c89190612545565b9050611312600860003373ffffffffffffffffffffffffffffffffffffffff1673ffffffffffffffffffffffffffffffffffffffff16815260200190815260200160002054611e3a565b61131b81611e3a565b80600860003373ffffffffffffffffffffffffffffffffffffffff1673ffffffffffffffffffffffffffffffffffffffff168152602001908152602001600020546113669190612576565b600860003373ffffffffffffffffffffffffffffffffffffffff1673ffffffffffffffffffffffffffffffffffffffff1681526020019081526020016000208190555080600a546113b79190612576565b600a819055508c6005546113cb9190612576565b866004546113d99190612576565b6113e391906124d4565b600d81905550505050505050506000600260006101000a81548160ff021916908315150217905550505050505050565b60008060009054906101000a900473ffffffffffffffffffffffffffffffffffffffff16905090565b81816000611448611d6a565b905061146b6040518060600160405280603b8152602001612dd9603b9139611da1565b61147481611e3a565b61147d83611e3a565b61148682611e3a565b6114a76040518060600160405280603b8152602001612dd9603b9139611da1565b8281106114e9576040517f08c379a00000000000000000000000000000000000000000000000000000000081526004016114e0906126e7565b60405180910390fd5b81811161152b576040517f08c379a000000000000000000000000000000000000000000000000000000000815260040161152290612753565b60405180910390fd5b600260009054906101000a900460ff161561157b576040517f08c379a0000000000000000000000000000000000000000000000000000000008152600401611572906123cd565b60405180910390fd5b6001600260006101000a81548160ff0219169083151502179055506000600554600454346115a991906124d4565b6115b39190612545565b90506000600360009054906101000a900473ffffffffffffffffffffffffffffffffffffffff1673ffffffffffffffffffffffffffffffffffffffff166370a08231336040518263ffffffff1660e01b815260040161161291906121a9565b602060405180830381865afa15801561162f573d6000803e3d6000fd5b505050506040513d601f19601f8201168201806040525081019061165391906128cc565b905080821115611698576040517f08c379a000000000000000000000000000000000000000000000000000000000815260040161168f90612b58565b60405180910390fd5b6000600360009054906101000a900473ffffffffffffffffffffffffffffffffffffffff1673ffffffffffffffffffffffffffffffffffffffff166323b872dd3330866040518463ffffffff1660e01b81526004016116f9939291906129f7565b6020604051808303816000875af1158015611718573d6000803e3d6000fd5b505050506040513d601f19601f8201168201806040525081019061173c919061263f565b90508061174c5761174b61266c565b5b6004548361175a91906125aa565b6004819055506005543461176e91906125aa565b600581905550600060055434600a5461178791906124d4565b6117919190612545565b90506000600860003373ffffffffffffffffffffffffffffffffffffffff1673ffffffffffffffffffffffffffffffffffffffff16815260200190815260200160002054905081816117e391906125aa565b600860003373ffffffffffffffffffffffffffffffffffffffff1673ffffffffffffffffffffffffffffffffffffffff1681526020019081526020016000208190555081600a5461183491906125aa565b600a819055506005543461184891906125aa565b6004548661185691906125aa565b61186091906124d4565b600d8190555050505050506000600260006101000a81548160ff0219169083151502179055505050505050565b600260009054906101000a900460ff16156118dd576040517f08c379a00000000000000000000000000000000000000000000000000000000081526004016118d4906123cd565b60405180910390fd5b6001600260006101000a81548160ff0219169083151502179055506000611902611d6a565b9050818110611946576040517f08c379a000000000000000000000000000000000000000000000000000000000815260040161193d90612c10565b60405180910390fd5b6000600c54611953611d53565b8561195e91906124d4565b6119689190612545565b9050600081856119789190612576565b905060008260045461198a91906125aa565b6005548461199891906124d4565b6119a29190612545565b90506000600360009054906101000a900473ffffffffffffffffffffffffffffffffffffffff1673ffffffffffffffffffffffffffffffffffffffff166323b872dd33308a6040518463ffffffff1660e01b8152600401611a05939291906129f7565b6020604051808303816000875af1158015611a24573d6000803e3d6000fd5b505050506040513d601f19601f82011682018060405250810190611a48919061263f565b905080611a5857611a5761266c565b5b3373ffffffffffffffffffffffffffffffffffffffff166108fc839081150290604051600060405180830381858888f19350505050158015611a9e573d6000803e3d6000fd5b50611add6040518060400160405280600481526020017f7068695800000000000000000000000000000000000000000000000000000000815250611da1565b611ae684611e3a565b611b246040518060400160405280600b81526020017f6665655f72657365727665000000000000000000000000000000000000000000815250611da1565b611b2d83611e3a565b611b6b6040518060400160405280600981526020017f616d6f756e744554480000000000000000000000000000000000000000000000815250611da1565b611b7482611e3a565b83600454611b8291906125aa565b60048190555081600554611b969190612576565b60058190555082600654611baa91906125aa565b60068190555050505050506000600260006101000a81548160ff0219169083151502179055505050565b600080600b54600c54915091509091565b611bed611ed3565b600073ffffffffffffffffffffffffffffffffffffffff168173ffffffffffffffffffffffffffffffffffffffff1603611c5c576040517f08c379a0000000000000000000000000000000000000000000000000000000008152600401611c5390612ca2565b60405180910390fd5b611c6581611f51565b50565b60018054611c7590612cf1565b80601f0160208091040260200160405190810160405280929190818152602001828054611ca190612cf1565b8015611cee5780601f10611cc357610100808354040283529160200191611cee565b820191906000526020600020905b815481529060010190602001808311611cd157829003601f168201915b505050505081565b600360009054906101000a900473ffffffffffffffffffffffffffffffffffffffff1681565b6000670de0b6b3a7640000600454600554600e54611d3a91906124d4565b611d449190612545565b611d4e9190612545565b905090565b6000600b54600c54611d659190612576565b905090565b6000600554670de0b6b3a7640000600454600e54611d8891906124d4565b611d9291906124d4565b611d9c9190612545565b905090565b611e3781604051602401611db591906122e5565b6040516020818303038152906040527f41304fac000000000000000000000000000000000000000000000000000000007bffffffffffffffffffffffffffffffffffffffffffffffffffffffff19166020820180517bffffffffffffffffffffffffffffffffffffffffffffffffffffffff8381831617835250505050612015565b50565b611ed081604051602401611e4e9190612d22565b6040516020818303038152906040527ff82c50f1000000000000000000000000000000000000000000000000000000007bffffffffffffffffffffffffffffffffffffffffffffffffffffffff19166020820180517bffffffffffffffffffffffffffffffffffffffffffffffffffffffff8381831617835250505050612015565b50565b611edb61202f565b73ffffffffffffffffffffffffffffffffffffffff16611ef9611413565b73ffffffffffffffffffffffffffffffffffffffff1614611f4f576040517f08c379a0000000000000000000000000000000000000000000000000000000008152600401611f4690612d89565b60405180910390fd5b565b60008060009054906101000a900473ffffffffffffffffffffffffffffffffffffffff169050816000806101000a81548173ffffffffffffffffffffffffffffffffffffffff021916908373ffffffffffffffffffffffffffffffffffffffff1602179055508173ffffffffffffffffffffffffffffffffffffffff168173ffffffffffffffffffffffffffffffffffffffff167f8be0079c531659141344cd1fd0a4f28419497f9722a3daafe3b4186f6b6457e060405160405180910390a35050565b61202c81612024612037612058565b63ffffffff16565b50565b600033905090565b60006a636f6e736f6c652e6c6f679050600080835160208501845afa505050565b612063819050919050565b61206b612da9565b565b600080fd5b6000819050919050565b61208581612072565b811461209057600080fd5b50565b6000813590506120a28161207c565b92915050565b6000602082840312156120be576120bd61206d565b5b60006120cc84828501612093565b91505092915050565b600080604083850312156120ec576120eb61206d565b5b60006120fa85828601612093565b925050602061210b85828601612093565b9150509250929050565b60008060006060848603121561212e5761212d61206d565b5b600061213c86828701612093565b935050602061214d86828701612093565b925050604061215e86828701612093565b9150509250925092565b600073ffffffffffffffffffffffffffffffffffffffff82169050919050565b600061219382612168565b9050919050565b6121a381612188565b82525050565b60006020820190506121be600083018461219a565b92915050565b6121cd81612072565b82525050565b60006040820190506121e860008301856121c4565b6121f560208301846121c4565b9392505050565b61220581612188565b811461221057600080fd5b50565b600081359050612222816121fc565b92915050565b60006020828403121561223e5761223d61206d565b5b600061224c84828501612213565b91505092915050565b600081519050919050565b600082825260208201905092915050565b60005b8381101561228f578082015181840152602081019050612274565b60008484015250505050565b6000601f19601f8301169050919050565b60006122b782612255565b6122c18185612260565b93506122d1818560208601612271565b6122da8161229b565b840191505092915050565b600060208201905081810360008301526122ff81846122ac565b905092915050565b6000819050919050565b600061232c61232761232284612168565b612307565b612168565b9050919050565b600061233e82612311565b9050919050565b600061235082612333565b9050919050565b61236081612345565b82525050565b600060208201905061237b6000830184612357565b92915050565b7f5265656e7472616e637920646574656374656400000000000000000000000000600082015250565b60006123b7601383612260565b91506123c282612381565b602082019050919050565b600060208201905081810360008301526123e6816123aa565b9050919050565b7f746f6b656e2070726963652068617320696e63726561736564207369676e696660008201527f6963616e746c792e20536c6970706167652061626f727473207468652074726160208201527f6e73616374696f6e000000000000000000000000000000000000000000000000604082015250565b600061246f604883612260565b915061247a826123ed565b606082019050919050565b6000602082019050818103600083015261249e81612462565b9050919050565b7f4e487b7100000000000000000000000000000000000000000000000000000000600052601160045260246000fd5b60006124df82612072565b91506124ea83612072565b92508282026124f881612072565b9150828204841483151761250f5761250e6124a5565b5b5092915050565b7f4e487b7100000000000000000000000000000000000000000000000000000000600052601260045260246000fd5b600061255082612072565b915061255b83612072565b92508261256b5761256a612516565b5b828204905092915050565b600061258182612072565b915061258c83612072565b92508282039050818111156125a4576125a36124a5565b5b92915050565b60006125b582612072565b91506125c083612072565b92508282019050808211156125d8576125d76124a5565b5b92915050565b60006040820190506125f3600083018561219a565b61260060208301846121c4565b9392505050565b60008115159050919050565b61261c81612607565b811461262757600080fd5b50565b60008151905061263981612613565b92915050565b6000602082840312156126555761265461206d565b5b60006126638482850161262a565b91505092915050565b7f4e487b7100000000000000000000000000000000000000000000000000000000600052600160045260246000fd5b7f65786368616e6765207261746520746f6f206869676800000000000000000000600082015250565b60006126d1601683612260565b91506126dc8261269b565b602082019050919050565b60006020820190508181036000830152612700816126c4565b9050919050565b7f65786368616e6765207261746520746f6f206c6f770000000000000000000000600082015250565b600061273d601583612260565b915061274882612707565b602082019050919050565b6000602082019050818103600083015261276c81612730565b9050919050565b7f546f6b656e20726573657276657320776173206e6f7420300000000000000000600082015250565b60006127a9601883612260565b91506127b482612773565b602082019050919050565b600060208201905081810360008301526127d88161279c565b9050919050565b7f45544820726573657276657320776173206e6f7420302e000000000000000000600082015250565b6000612815601783612260565b9150612820826127df565b602082019050919050565b6000602082019050818103600083015261284481612808565b9050919050565b7f4e6565642065746820746f2063726561746520706f6f6c2e0000000000000000600082015250565b6000612881601883612260565b915061288c8261284b565b602082019050919050565b600060208201905081810360008301526128b081612874565b9050919050565b6000815190506128c68161207c565b92915050565b6000602082840312156128e2576128e161206d565b5b60006128f0848285016128b7565b91505092915050565b7f4e6f74206861766520656e6f75676820746f6b656e7320746f2063726561746560008201527f2074686520706f6f6c0000000000000000000000000000000000000000000000602082015250565b6000612955602983612260565b9150612960826128f9565b604082019050919050565b6000602082019050818103600083015261298481612948565b9050919050565b7f4e65656420746f6b656e7320746f2063726561746520706f6f6c2e0000000000600082015250565b60006129c1601b83612260565b91506129cc8261298b565b602082019050919050565b600060208201905081810360008301526129f0816129b4565b9050919050565b6000606082019050612a0c600083018661219a565b612a19602083018561219a565b612a2660408301846121c4565b949350505050565b7f7573657220646f65736e2774206861766520656e6f756768207368617265732060008201527f6f6620706f6f6c20746f2072656d6f76654c6971756964697479000000000000602082015250565b6000612a8a603a83612260565b9150612a9582612a2e565b604082019050919050565b60006020820190508181036000830152612ab981612a7d565b9050919050565b7f52656d61696e696e672062616c616e6365206f66207468652073656e6420697360008201527f206e6f7420656e6f75676820746f2070726f7669646520746865206c6971756960208201527f6469747900000000000000000000000000000000000000000000000000000000604082015250565b6000612b42604483612260565b9150612b4d82612ac0565b606082019050919050565b60006020820190508181036000830152612b7181612b35565b9050919050565b7f4574682070726963652068617320696e63726561736564207369676e6966696360008201527f616e746c792e20536c6970706167652061626f72747320746865207472616e7360208201527f616374696f6e0000000000000000000000000000000000000000000000000000604082015250565b6000612bfa604683612260565b9150612c0582612b78565b606082019050919050565b60006020820190508181036000830152612c2981612bed565b9050919050565b7f4f776e61626c653a206e6577206f776e657220697320746865207a65726f206160008201527f6464726573730000000000000000000000000000000000000000000000000000602082015250565b6000612c8c602683612260565b9150612c9782612c30565b604082019050919050565b60006020820190508181036000830152612cbb81612c7f565b9050919050565b7f4e487b7100000000000000000000000000000000000000000000000000000000600052602260045260246000fd5b60006002820490506001821680612d0957607f821691505b602082108103612d1c57612d1b612cc2565b5b50919050565b6000602082019050612d3760008301846121c4565b92915050565b7f4f776e61626c653a2063616c6c6572206973206e6f7420746865206f776e6572600082015250565b6000612d73602083612260565b9150612d7e82612d3d565b602082019050919050565b60006020820190508181036000830152612da281612d66565b9050919050565b7f4e487b7100000000000000000000000000000000000000000000000000000000600052605160045260246000fdfe3d3d3d3d3d3d3d3d3d3d3d3d3d3d3d3d3d3d3d3d3d3d3d3d3d3d3d3d3d3d3d3d3d3d3d3d3d3d3d3d3d3d3d3d3d3d3d3d3d3d3d3d3d3d3d3d3d3d3da2646970667358221220a638a1dd1a2eaba0f87ff786c3f43d9848ca1add32be474848ce090ec39fa26d64736f6c63430008110033",
  "linkReferences": {},
  "deployedLinkReferences": {}
}