{
  "_format": "hh-sol-artifact-1",
  "contractName": "TokenExchange",
  "sourceName": "contracts/exchange.sol",
  "abi": [
    {
      "inputs": [],
      "stateMutability": "nonpayable",
      "type": "constructor"
    },
    {
      "anonymous": false,
      "inputs": [
        {
          "indexed": true,
          "internalType": "address",
          "name": "previousOwner",
          "type": "address"
        },
        {
          "indexed": true,
          "internalType": "address",
          "name": "newOwner",
          "type": "address"
        }
      ],
      "name": "OwnershipTransferred",
      "type": "event"
    },
    {
      "anonymous": false,
      "inputs": [
        {
          "indexed": false,
          "internalType": "uint256",
          "name": "message",
          "type": "uint256"
        }
      ],
      "name": "SwapTokensForETHEvent",
      "type": "event"
    },
    {
      "inputs": [],
      "name": "addLiquidity",
      "outputs": [],
      "stateMutability": "payable",
      "type": "function"
    },
    {
      "inputs": [
        {
          "internalType": "uint256",
          "name": "amountTokens",
          "type": "uint256"
        }
      ],
      "name": "createPool",
      "outputs": [],
      "stateMutability": "payable",
      "type": "function"
    },
    {
      "inputs": [],
      "name": "exchange_name",
      "outputs": [
        {
          "internalType": "string",
          "name": "",
          "type": "string"
        }
      ],
      "stateMutability": "view",
      "type": "function"
    },
    {
      "inputs": [],
      "name": "getSwapFee",
      "outputs": [
        {
          "internalType": "uint256",
          "name": "",
          "type": "uint256"
        },
        {
          "internalType": "uint256",
          "name": "",
          "type": "uint256"
        }
      ],
      "stateMutability": "view",
      "type": "function"
    },
    {
      "inputs": [],
      "name": "owner",
      "outputs": [
        {
          "internalType": "address",
          "name": "",
          "type": "address"
        }
      ],
      "stateMutability": "view",
      "type": "function"
    },
    {
      "inputs": [],
      "name": "removeAllLiquidity",
      "outputs": [],
      "stateMutability": "payable",
      "type": "function"
    },
    {
      "inputs": [
        {
          "internalType": "uint256",
          "name": "amountETH",
          "type": "uint256"
        }
      ],
      "name": "removeLiquidity",
      "outputs": [],
      "stateMutability": "payable",
      "type": "function"
    },
    {
      "inputs": [],
      "name": "renounceOwnership",
      "outputs": [],
      "stateMutability": "nonpayable",
      "type": "function"
    },
    {
      "inputs": [
        {
          "internalType": "uint256",
          "name": "max_exchange_rate",
          "type": "uint256"
        }
      ],
      "name": "swapETHForTokens",
      "outputs": [],
      "stateMutability": "payable",
      "type": "function"
    },
    {
      "inputs": [
        {
          "internalType": "uint256",
          "name": "amountTokens",
          "type": "uint256"
        },
        {
          "internalType": "uint256",
          "name": "max_exchange_rate",
          "type": "uint256"
        }
      ],
      "name": "swapTokensForETH",
      "outputs": [],
      "stateMutability": "payable",
      "type": "function"
    },
    {
      "inputs": [],
      "name": "token",
      "outputs": [
        {
          "internalType": "contract Token",
          "name": "",
          "type": "address"
        }
      ],
      "stateMutability": "view",
      "type": "function"
    },
    {
      "inputs": [
        {
          "internalType": "address",
          "name": "newOwner",
          "type": "address"
        }
      ],
      "name": "transferOwnership",
      "outputs": [],
      "stateMutability": "nonpayable",
      "type": "function"
    }
  ],
  "bytecode": "0x60806040526040518060400160405280600981526020017f6373323531737761700000000000000000000000000000000000000000000000815250600190816200004a9190620004a7565b50735fbdb2315678afecb367f032d93f642f64180aa3600260006101000a81548173ffffffffffffffffffffffffffffffffffffffff021916908373ffffffffffffffffffffffffffffffffffffffff160217905550600260009054906101000a900473ffffffffffffffffffffffffffffffffffffffff16600360006101000a81548173ffffffffffffffffffffffffffffffffffffffff021916908373ffffffffffffffffffffffffffffffffffffffff16021790555060006004556000600555600060065560006007556000600a556000600b556064600c55620186a0600e553480156200013a57600080fd5b506200015b6200014f6200016160201b60201c565b6200016960201b60201c565b6200058e565b600033905090565b60008060009054906101000a900473ffffffffffffffffffffffffffffffffffffffff169050816000806101000a81548173ffffffffffffffffffffffffffffffffffffffff021916908373ffffffffffffffffffffffffffffffffffffffff1602179055508173ffffffffffffffffffffffffffffffffffffffff168173ffffffffffffffffffffffffffffffffffffffff167f8be0079c531659141344cd1fd0a4f28419497f9722a3daafe3b4186f6b6457e060405160405180910390a35050565b600081519050919050565b7f4e487b7100000000000000000000000000000000000000000000000000000000600052604160045260246000fd5b7f4e487b7100000000000000000000000000000000000000000000000000000000600052602260045260246000fd5b60006002820490506001821680620002af57607f821691505b602082108103620002c557620002c462000267565b5b50919050565b60008190508160005260206000209050919050565b60006020601f8301049050919050565b600082821b905092915050565b6000600883026200032f7fffffffffffffffffffffffffffffffffffffffffffffffffffffffffffffffff82620002f0565b6200033b8683620002f0565b95508019841693508086168417925050509392505050565b6000819050919050565b6000819050919050565b600062000388620003826200037c8462000353565b6200035d565b62000353565b9050919050565b6000819050919050565b620003a48362000367565b620003bc620003b3826200038f565b848454620002fd565b825550505050565b600090565b620003d3620003c4565b620003e081848462000399565b505050565b5b818110156200040857620003fc600082620003c9565b600181019050620003e6565b5050565b601f82111562000457576200042181620002cb565b6200042c84620002e0565b810160208510156200043c578190505b620004546200044b85620002e0565b830182620003e5565b50505b505050565b600082821c905092915050565b60006200047c600019846008026200045c565b1980831691505092915050565b600062000497838362000469565b9150826002028217905092915050565b620004b2826200022d565b67ffffffffffffffff811115620004ce57620004cd62000238565b5b620004da825462000296565b620004e78282856200040c565b600060209050601f8311600181146200051f57600084156200050a578287015190505b62000516858262000489565b86555062000586565b601f1984166200052f86620002cb565b60005b82811015620005595784890151825560018201915060208501945060208101905062000532565b8683101562000579578489015162000575601f89168262000469565b8355505b6001600288020188555050505b505050505050565b6123d9806200059e6000396000f3fe6080604052600436106100a75760003560e01c8063a22280a611610064578063a22280a61461014c578063d4cadf6814610168578063e8078d9414610194578063f2fde38b1461019e578063f694f7d1146101c7578063fc0c546a146101f2576100a7565b80632eab2841146100ac578063715018a6146100c85780638259e6a0146100df57806388a780e5146100fb5780638da5cb5b146101055780639c8f9f2314610130575b600080fd5b6100c660048036038101906100c1919061180a565b61021d565b005b3480156100d457600080fd5b506100dd610403565b005b6100f960048036038101906100f4919061180a565b610417565b005b610103610820565b005b34801561011157600080fd5b5061011a610a8d565b6040516101279190611878565b60405180910390f35b61014a6004803603810190610145919061180a565b610ab6565b005b61016660048036038101906101619190611893565b610e46565b005b34801561017457600080fd5b5061017d611076565b60405161018b9291906118e2565b60405180910390f35b61019c611087565b005b3480156101aa57600080fd5b506101c560048036038101906101c09190611937565b61135e565b005b3480156101d357600080fd5b506101dc6113e1565b6040516101e991906119f4565b60405180910390f35b3480156101fe57600080fd5b5061020761146f565b6040516102149190611a75565b60405180910390f35b6000610227611495565b90506102676040518060400160405280600781526020017f72617465203d20000000000000000000000000000000000000000000000000008152506114cc565b61027081611565565b6102ae6040518060400160405280601381526020017f6d61785f65786368616e67655f72617465203d000000000000000000000000008152506114cc565b6102b782611565565b8181106102f9576040517f08c379a00000000000000000000000000000000000000000000000000000000081526004016102f090611b28565b60405180910390fd5b6000346005546103099190611b77565b600454346103179190611bab565b6103219190611c1c565b90506000600360009054906101000a900473ffffffffffffffffffffffffffffffffffffffff1673ffffffffffffffffffffffffffffffffffffffff1663a9059cbb33846040518363ffffffff1660e01b8152600401610382929190611c4d565b6020604051808303816000875af11580156103a1573d6000803e3d6000fd5b505050506040513d601f19601f820116820180604052508101906103c59190611cae565b9050806103d5576103d4611cdb565b5b816004546103e39190611d0a565b600481905550346005546103f79190611b77565b60058190555050505050565b61040b6115fe565b610415600061167c565b565b61041f6115fe565b600060045414610464576040517f08c379a000000000000000000000000000000000000000000000000000000000815260040161045b90611d8a565b60405180910390fd5b6000600554146104a9576040517f08c379a00000000000000000000000000000000000000000000000000000000081526004016104a090611df6565b60405180910390fd5b600034116104ec576040517f08c379a00000000000000000000000000000000000000000000000000000000081526004016104e390611e62565b60405180910390fd5b61052a6040518060400160405280600a81526020017f637265617465506f6f6c000000000000000000000000000000000000000000008152506114cc565b61053334611565565b6000600360009054906101000a900473ffffffffffffffffffffffffffffffffffffffff1673ffffffffffffffffffffffffffffffffffffffff166370a08231336040518263ffffffff1660e01b81526004016105909190611878565b602060405180830381865afa1580156105ad573d6000803e3d6000fd5b505050506040513d601f19601f820116820180604052508101906105d19190611e97565b90506105dc81611565565b6105e582611565565b80821115610628576040517f08c379a000000000000000000000000000000000000000000000000000000000815260040161061f90611f36565b60405180910390fd5b6000821161066b576040517f08c379a000000000000000000000000000000000000000000000000000000000815260040161066290611fa2565b60405180910390fd5b600360009054906101000a900473ffffffffffffffffffffffffffffffffffffffff1673ffffffffffffffffffffffffffffffffffffffff166323b872dd3330856040518463ffffffff1660e01b81526004016106ca93929190611fc2565b6020604051808303816000875af11580156106e9573d6000803e3d6000fd5b505050506040513d601f19601f8201168201806040525081019061070d9190611cae565b50600360009054906101000a900473ffffffffffffffffffffffffffffffffffffffff1673ffffffffffffffffffffffffffffffffffffffff166370a08231306040518263ffffffff1660e01b81526004016107699190611878565b602060405180830381865afa158015610786573d6000803e3d6000fd5b505050506040513d601f19601f820116820180604052508101906107aa9190611e97565b600481905550346005819055506005546004546107c79190611bab565b600d81905550620186a0600a819055506064600860003373ffffffffffffffffffffffffffffffffffffffff1673ffffffffffffffffffffffffffffffffffffffff168152602001908152602001600020819055505050565b6000600860003373ffffffffffffffffffffffffffffffffffffffff1673ffffffffffffffffffffffffffffffffffffffff1681526020019081526020016000205490506000600a54826005546108779190611bab565b6108819190611c1c565b90506000600a54836004546108969190611bab565b6108a09190611c1c565b90506000600360009054906101000a900473ffffffffffffffffffffffffffffffffffffffff1673ffffffffffffffffffffffffffffffffffffffff1663a9059cbb33846040518363ffffffff1660e01b8152600401610901929190611c4d565b6020604051808303816000875af1158015610920573d6000803e3d6000fd5b505050506040513d601f19601f820116820180604052508101906109449190611cae565b90508061095457610953611cdb565b5b3373ffffffffffffffffffffffffffffffffffffffff166108fc849081150290604051600060405180830381858888f1935050505015801561099a573d6000803e3d6000fd5b50816004546109a99190611d0a565b600481905550826005546109bd9190611d0a565b600581905550600860003373ffffffffffffffffffffffffffffffffffffffff1673ffffffffffffffffffffffffffffffffffffffff16815260200190815260200160002054600a54610a109190611d0a565b600a819055506000600860003373ffffffffffffffffffffffffffffffffffffffff1673ffffffffffffffffffffffffffffffffffffffff1681526020019081526020016000208190555082600554610a699190611d0a565b82600454610a779190611d0a565b610a819190611bab565b600d8190555050505050565b60008060009054906101000a900473ffffffffffffffffffffffffffffffffffffffff16905090565b6000600860003373ffffffffffffffffffffffffffffffffffffffff1673ffffffffffffffffffffffffffffffffffffffff168152602001908152602001600020549050610b386040518060400160405280601f81526020017f3d3d3d3d3d3d2072656d6f76654c6971756964697479203d3d3d3d3d3d3d3d008152506114cc565b610b4182611565565b610b64600a5482600554610b559190611bab565b610b5f9190611c1c565b611565565b600a5481600554610b759190611bab565b610b7f9190611c1c565b821115610bc1576040517f08c379a0000000000000000000000000000000000000000000000000000000008152600401610bb89061206b565b60405180910390fd5b600060055460045484610bd49190611bab565b610bde9190611c1c565b90506000600360009054906101000a900473ffffffffffffffffffffffffffffffffffffffff1673ffffffffffffffffffffffffffffffffffffffff1663a9059cbb33846040518363ffffffff1660e01b8152600401610c3f929190611c4d565b6020604051808303816000875af1158015610c5e573d6000803e3d6000fd5b505050506040513d601f19601f82011682018060405250810190610c829190611cae565b905080610c9257610c91611cdb565b5b3373ffffffffffffffffffffffffffffffffffffffff166108fc859081150290604051600060405180830381858888f19350505050158015610cd8573d6000803e3d6000fd5b5081600454610ce79190611d0a565b60048190555083600554610cfb9190611d0a565b600581905550600060055485600a54610d149190611bab565b610d1e9190611c1c565b9050610d68600860003373ffffffffffffffffffffffffffffffffffffffff1673ffffffffffffffffffffffffffffffffffffffff16815260200190815260200160002054611565565b610d7181611565565b80600860003373ffffffffffffffffffffffffffffffffffffffff1673ffffffffffffffffffffffffffffffffffffffff16815260200190815260200160002054610dbc9190611d0a565b600860003373ffffffffffffffffffffffffffffffffffffffff1673ffffffffffffffffffffffffffffffffffffffff1681526020019081526020016000208190555080600a54610e0d9190611d0a565b600a8190555084600554610e219190611d0a565b83600454610e2f9190611d0a565b610e399190611bab565b600d819055505050505050565b6000610e50611740565b9050610e906040518060400160405280600781526020017f72617465203d20000000000000000000000000000000000000000000000000008152506114cc565b610e9981611565565b610ed76040518060400160405280601381526020017f6d61785f65786368616e67655f72617465203d000000000000000000000000008152506114cc565b610ee082611565565b818110610f22576040517f08c379a0000000000000000000000000000000000000000000000000000000008152600401610f1990612123565b60405180910390fd5b600083600454610f329190611b77565b60055485610f409190611bab565b610f4a9190611c1c565b90506000600360009054906101000a900473ffffffffffffffffffffffffffffffffffffffff1673ffffffffffffffffffffffffffffffffffffffff166323b872dd3330886040518463ffffffff1660e01b8152600401610fad93929190611fc2565b6020604051808303816000875af1158015610fcc573d6000803e3d6000fd5b505050506040513d601f19601f82011682018060405250810190610ff09190611cae565b90508061100057610fff611cdb565b5b3373ffffffffffffffffffffffffffffffffffffffff166108fc839081150290604051600060405180830381858888f19350505050158015611046573d6000803e3d6000fd5b50846004546110559190611b77565b600481905550816005546110699190611d0a565b6005819055505050505050565b600080600b54600c54915091509091565b60006005546004543461109a9190611bab565b6110a49190611c1c565b90506000600360009054906101000a900473ffffffffffffffffffffffffffffffffffffffff1673ffffffffffffffffffffffffffffffffffffffff166370a08231336040518263ffffffff1660e01b81526004016111039190611878565b602060405180830381865afa158015611120573d6000803e3d6000fd5b505050506040513d601f19601f820116820180604052508101906111449190611e97565b905080821115611189576040517f08c379a0000000000000000000000000000000000000000000000000000000008152600401611180906121db565b60405180910390fd5b6000600360009054906101000a900473ffffffffffffffffffffffffffffffffffffffff1673ffffffffffffffffffffffffffffffffffffffff166323b872dd3330866040518463ffffffff1660e01b81526004016111ea93929190611fc2565b6020604051808303816000875af1158015611209573d6000803e3d6000fd5b505050506040513d601f19601f8201168201806040525081019061122d9190611cae565b90508061123d5761123c611cdb565b5b6004548361124b9190611b77565b6004819055506005543461125f9190611b77565b600581905550600060055434600a546112789190611bab565b6112829190611c1c565b90506000600860003373ffffffffffffffffffffffffffffffffffffffff1673ffffffffffffffffffffffffffffffffffffffff16815260200190815260200160002054905081816112d49190611b77565b600860003373ffffffffffffffffffffffffffffffffffffffff1673ffffffffffffffffffffffffffffffffffffffff1681526020019081526020016000208190555081600a546113259190611b77565b600a81905550600554346113399190611b77565b600454866113479190611b77565b6113519190611bab565b600d819055505050505050565b6113666115fe565b600073ffffffffffffffffffffffffffffffffffffffff168173ffffffffffffffffffffffffffffffffffffffff16036113d5576040517f08c379a00000000000000000000000000000000000000000000000000000000081526004016113cc9061226d565b60405180910390fd5b6113de8161167c565b50565b600180546113ee906122bc565b80601f016020809104026020016040519081016040528092919081815260200182805461141a906122bc565b80156114675780601f1061143c57610100808354040283529160200191611467565b820191906000526020600020905b81548152906001019060200180831161144a57829003601f168201915b505050505081565b600360009054906101000a900473ffffffffffffffffffffffffffffffffffffffff1681565b6000670de0b6b3a7640000600454600554600e546114b39190611bab565b6114bd9190611c1c565b6114c79190611c1c565b905090565b611562816040516024016114e091906119f4565b6040516020818303038152906040527f41304fac000000000000000000000000000000000000000000000000000000007bffffffffffffffffffffffffffffffffffffffffffffffffffffffff19166020820180517bffffffffffffffffffffffffffffffffffffffffffffffffffffffff8381831617835250505050611777565b50565b6115fb8160405160240161157991906122ed565b6040516020818303038152906040527ff82c50f1000000000000000000000000000000000000000000000000000000007bffffffffffffffffffffffffffffffffffffffffffffffffffffffff19166020820180517bffffffffffffffffffffffffffffffffffffffffffffffffffffffff8381831617835250505050611777565b50565b611606611791565b73ffffffffffffffffffffffffffffffffffffffff16611624610a8d565b73ffffffffffffffffffffffffffffffffffffffff161461167a576040517f08c379a000000000000000000000000000000000000000000000000000000000815260040161167190612354565b60405180910390fd5b565b60008060009054906101000a900473ffffffffffffffffffffffffffffffffffffffff169050816000806101000a81548173ffffffffffffffffffffffffffffffffffffffff021916908373ffffffffffffffffffffffffffffffffffffffff1602179055508173ffffffffffffffffffffffffffffffffffffffff168173ffffffffffffffffffffffffffffffffffffffff167f8be0079c531659141344cd1fd0a4f28419497f9722a3daafe3b4186f6b6457e060405160405180910390a35050565b6000600554670de0b6b3a7640000600454600e5461175e9190611bab565b6117689190611bab565b6117729190611c1c565b905090565b61178e816117866117996117ba565b63ffffffff16565b50565b600033905090565b60006a636f6e736f6c652e6c6f679050600080835160208501845afa505050565b6117c5819050919050565b6117cd612374565b565b600080fd5b6000819050919050565b6117e7816117d4565b81146117f257600080fd5b50565b600081359050611804816117de565b92915050565b6000602082840312156118205761181f6117cf565b5b600061182e848285016117f5565b91505092915050565b600073ffffffffffffffffffffffffffffffffffffffff82169050919050565b600061186282611837565b9050919050565b61187281611857565b82525050565b600060208201905061188d6000830184611869565b92915050565b600080604083850312156118aa576118a96117cf565b5b60006118b8858286016117f5565b92505060206118c9858286016117f5565b9150509250929050565b6118dc816117d4565b82525050565b60006040820190506118f760008301856118d3565b61190460208301846118d3565b9392505050565b61191481611857565b811461191f57600080fd5b50565b6000813590506119318161190b565b92915050565b60006020828403121561194d5761194c6117cf565b5b600061195b84828501611922565b91505092915050565b600081519050919050565b600082825260208201905092915050565b60005b8381101561199e578082015181840152602081019050611983565b60008484015250505050565b6000601f19601f8301169050919050565b60006119c682611964565b6119d0818561196f565b93506119e0818560208601611980565b6119e9816119aa565b840191505092915050565b60006020820190508181036000830152611a0e81846119bb565b905092915050565b6000819050919050565b6000611a3b611a36611a3184611837565b611a16565b611837565b9050919050565b6000611a4d82611a20565b9050919050565b6000611a5f82611a42565b9050919050565b611a6f81611a54565b82525050565b6000602082019050611a8a6000830184611a66565b92915050565b7f746f6b656e2070726963652068617320696e63726561736564207369676e696660008201527f6963616e746c792e20536c6970706167652061626f727473207468652074726160208201527f6e73616374696f6e000000000000000000000000000000000000000000000000604082015250565b6000611b1260488361196f565b9150611b1d82611a90565b606082019050919050565b60006020820190508181036000830152611b4181611b05565b9050919050565b7f4e487b7100000000000000000000000000000000000000000000000000000000600052601160045260246000fd5b6000611b82826117d4565b9150611b8d836117d4565b9250828201905080821115611ba557611ba4611b48565b5b92915050565b6000611bb6826117d4565b9150611bc1836117d4565b9250828202611bcf816117d4565b91508282048414831517611be657611be5611b48565b5b5092915050565b7f4e487b7100000000000000000000000000000000000000000000000000000000600052601260045260246000fd5b6000611c27826117d4565b9150611c32836117d4565b925082611c4257611c41611bed565b5b828204905092915050565b6000604082019050611c626000830185611869565b611c6f60208301846118d3565b9392505050565b60008115159050919050565b611c8b81611c76565b8114611c9657600080fd5b50565b600081519050611ca881611c82565b92915050565b600060208284031215611cc457611cc36117cf565b5b6000611cd284828501611c99565b91505092915050565b7f4e487b7100000000000000000000000000000000000000000000000000000000600052600160045260246000fd5b6000611d15826117d4565b9150611d20836117d4565b9250828203905081811115611d3857611d37611b48565b5b92915050565b7f546f6b656e20726573657276657320776173206e6f7420300000000000000000600082015250565b6000611d7460188361196f565b9150611d7f82611d3e565b602082019050919050565b60006020820190508181036000830152611da381611d67565b9050919050565b7f45544820726573657276657320776173206e6f7420302e000000000000000000600082015250565b6000611de060178361196f565b9150611deb82611daa565b602082019050919050565b60006020820190508181036000830152611e0f81611dd3565b9050919050565b7f4e6565642065746820746f2063726561746520706f6f6c2e0000000000000000600082015250565b6000611e4c60188361196f565b9150611e5782611e16565b602082019050919050565b60006020820190508181036000830152611e7b81611e3f565b9050919050565b600081519050611e91816117de565b92915050565b600060208284031215611ead57611eac6117cf565b5b6000611ebb84828501611e82565b91505092915050565b7f4e6f74206861766520656e6f75676820746f6b656e7320746f2063726561746560008201527f2074686520706f6f6c0000000000000000000000000000000000000000000000602082015250565b6000611f2060298361196f565b9150611f2b82611ec4565b604082019050919050565b60006020820190508181036000830152611f4f81611f13565b9050919050565b7f4e65656420746f6b656e7320746f2063726561746520706f6f6c2e0000000000600082015250565b6000611f8c601b8361196f565b9150611f9782611f56565b602082019050919050565b60006020820190508181036000830152611fbb81611f7f565b9050919050565b6000606082019050611fd76000830186611869565b611fe46020830185611869565b611ff160408301846118d3565b949350505050565b7f7573657220646f65736e2774206861766520656e6f756768207368617265732060008201527f6f6620706f6f6c20746f2072656d6f76654c6971756964697479000000000000602082015250565b6000612055603a8361196f565b915061206082611ff9565b604082019050919050565b6000602082019050818103600083015261208481612048565b9050919050565b7f4574682070726963652068617320696e63726561736564207369676e6966696360008201527f616e746c792e20536c6970706167652061626f72747320746865207472616e7360208201527f616374696f6e0000000000000000000000000000000000000000000000000000604082015250565b600061210d60468361196f565b91506121188261208b565b606082019050919050565b6000602082019050818103600083015261213c81612100565b9050919050565b7f52656d61696e696e672062616c616e6365206f66207468652073656e6420697360008201527f206e6f7420656e6f75676820746f2070726f7669646520746865206c6971756960208201527f6469747900000000000000000000000000000000000000000000000000000000604082015250565b60006121c560448361196f565b91506121d082612143565b606082019050919050565b600060208201905081810360008301526121f4816121b8565b9050919050565b7f4f776e61626c653a206e6577206f776e657220697320746865207a65726f206160008201527f6464726573730000000000000000000000000000000000000000000000000000602082015250565b600061225760268361196f565b9150612262826121fb565b604082019050919050565b600060208201905081810360008301526122868161224a565b9050919050565b7f4e487b7100000000000000000000000000000000000000000000000000000000600052602260045260246000fd5b600060028204905060018216806122d457607f821691505b6020821081036122e7576122e661228d565b5b50919050565b600060208201905061230260008301846118d3565b92915050565b7f4f776e61626c653a2063616c6c6572206973206e6f7420746865206f776e6572600082015250565b600061233e60208361196f565b915061234982612308565b602082019050919050565b6000602082019050818103600083015261236d81612331565b9050919050565b7f4e487b7100000000000000000000000000000000000000000000000000000000600052605160045260246000fdfea26469706673582212201bde3c84c142f7ee796deb8c5db5be17c71740635d4d1c26c2cf0ddba6625c8564736f6c63430008110033",
  "linkReferences": {},
  "deployedLinkReferences": {}
}