{
  "_format": "hh-sol-artifact-1",
  "contractName": "TokenExchange",
  "sourceName": "contracts/exchange.sol",
  "abi": [
    {
      "inputs": [],
      "stateMutability": "nonpayable",
      "type": "constructor"
    },
    {
      "anonymous": false,
      "inputs": [
        {
          "indexed": true,
          "internalType": "address",
          "name": "previousOwner",
          "type": "address"
        },
        {
          "indexed": true,
          "internalType": "address",
          "name": "newOwner",
          "type": "address"
        }
      ],
      "name": "OwnershipTransferred",
      "type": "event"
    },
    {
      "anonymous": false,
      "inputs": [
        {
          "indexed": false,
          "internalType": "uint256",
          "name": "message",
          "type": "uint256"
        }
      ],
      "name": "SwapTokensForETHEvent",
      "type": "event"
    },
    {
      "inputs": [
        {
          "internalType": "uint256",
          "name": "max_token_eth_ex_rate",
          "type": "uint256"
        },
        {
          "internalType": "uint256",
          "name": "min_token_eth_ex_rate",
          "type": "uint256"
        }
      ],
      "name": "addLiquidity",
      "outputs": [],
      "stateMutability": "payable",
      "type": "function"
    },
    {
      "inputs": [
        {
          "internalType": "uint256",
          "name": "amountTokens",
          "type": "uint256"
        }
      ],
      "name": "createPool",
      "outputs": [],
      "stateMutability": "payable",
      "type": "function"
    },
    {
      "inputs": [],
      "name": "exchange_name",
      "outputs": [
        {
          "internalType": "string",
          "name": "",
          "type": "string"
        }
      ],
      "stateMutability": "view",
      "type": "function"
    },
    {
      "inputs": [],
      "name": "getSwapFee",
      "outputs": [
        {
          "internalType": "uint256",
          "name": "",
          "type": "uint256"
        },
        {
          "internalType": "uint256",
          "name": "",
          "type": "uint256"
        }
      ],
      "stateMutability": "view",
      "type": "function"
    },
    {
      "inputs": [],
      "name": "owner",
      "outputs": [
        {
          "internalType": "address",
          "name": "",
          "type": "address"
        }
      ],
      "stateMutability": "view",
      "type": "function"
    },
    {
      "inputs": [
        {
          "internalType": "uint256",
          "name": "max_token_eth_ex_rate",
          "type": "uint256"
        },
        {
          "internalType": "uint256",
          "name": "min_token_eth_ex_rate",
          "type": "uint256"
        }
      ],
      "name": "removeAllLiquidity",
      "outputs": [],
      "stateMutability": "payable",
      "type": "function"
    },
    {
      "inputs": [
        {
          "internalType": "uint256",
          "name": "amountETH",
          "type": "uint256"
        },
        {
          "internalType": "uint256",
          "name": "max_token_eth_ex_rate",
          "type": "uint256"
        },
        {
          "internalType": "uint256",
          "name": "min_token_eth_ex_rate",
          "type": "uint256"
        }
      ],
      "name": "removeLiquidity",
      "outputs": [],
      "stateMutability": "payable",
      "type": "function"
    },
    {
      "inputs": [],
      "name": "renounceOwnership",
      "outputs": [],
      "stateMutability": "nonpayable",
      "type": "function"
    },
    {
      "inputs": [
        {
          "internalType": "uint256",
          "name": "max_exchange_rate",
          "type": "uint256"
        }
      ],
      "name": "swapETHForTokens",
      "outputs": [],
      "stateMutability": "payable",
      "type": "function"
    },
    {
      "inputs": [
        {
          "internalType": "uint256",
          "name": "amountTokens",
          "type": "uint256"
        },
        {
          "internalType": "uint256",
          "name": "max_exchange_rate",
          "type": "uint256"
        }
      ],
      "name": "swapTokensForETH",
      "outputs": [],
      "stateMutability": "payable",
      "type": "function"
    },
    {
      "inputs": [],
      "name": "token",
      "outputs": [
        {
          "internalType": "contract Token",
          "name": "",
          "type": "address"
        }
      ],
      "stateMutability": "view",
      "type": "function"
    },
    {
      "inputs": [
        {
          "internalType": "address",
          "name": "newOwner",
          "type": "address"
        }
      ],
      "name": "transferOwnership",
      "outputs": [],
      "stateMutability": "nonpayable",
      "type": "function"
    }
  ],
  "bytecode": "0x60806040526040518060400160405280600981526020017f6373323531737761700000000000000000000000000000000000000000000000815250600190816200004a9190620004a7565b50735fbdb2315678afecb367f032d93f642f64180aa3600260016101000a81548173ffffffffffffffffffffffffffffffffffffffff021916908373ffffffffffffffffffffffffffffffffffffffff160217905550600260019054906101000a900473ffffffffffffffffffffffffffffffffffffffff16600360006101000a81548173ffffffffffffffffffffffffffffffffffffffff021916908373ffffffffffffffffffffffffffffffffffffffff16021790555060006004556000600555600060065560006007556000600a556003600b556064600c55620186a0600e553480156200013a57600080fd5b506200015b6200014f6200016160201b60201c565b6200016960201b60201c565b6200058e565b600033905090565b60008060009054906101000a900473ffffffffffffffffffffffffffffffffffffffff169050816000806101000a81548173ffffffffffffffffffffffffffffffffffffffff021916908373ffffffffffffffffffffffffffffffffffffffff1602179055508173ffffffffffffffffffffffffffffffffffffffff168173ffffffffffffffffffffffffffffffffffffffff167f8be0079c531659141344cd1fd0a4f28419497f9722a3daafe3b4186f6b6457e060405160405180910390a35050565b600081519050919050565b7f4e487b7100000000000000000000000000000000000000000000000000000000600052604160045260246000fd5b7f4e487b7100000000000000000000000000000000000000000000000000000000600052602260045260246000fd5b60006002820490506001821680620002af57607f821691505b602082108103620002c557620002c462000267565b5b50919050565b60008190508160005260206000209050919050565b60006020601f8301049050919050565b600082821b905092915050565b6000600883026200032f7fffffffffffffffffffffffffffffffffffffffffffffffffffffffffffffffff82620002f0565b6200033b8683620002f0565b95508019841693508086168417925050509392505050565b6000819050919050565b6000819050919050565b600062000388620003826200037c8462000353565b6200035d565b62000353565b9050919050565b6000819050919050565b620003a48362000367565b620003bc620003b3826200038f565b848454620002fd565b825550505050565b600090565b620003d3620003c4565b620003e081848462000399565b505050565b5b818110156200040857620003fc600082620003c9565b600181019050620003e6565b5050565b601f82111562000457576200042181620002cb565b6200042c84620002e0565b810160208510156200043c578190505b620004546200044b85620002e0565b830182620003e5565b50505b505050565b600082821c905092915050565b60006200047c600019846008026200045c565b1980831691505092915050565b600062000497838362000469565b9150826002028217905092915050565b620004b2826200022d565b67ffffffffffffffff811115620004ce57620004cd62000238565b5b620004da825462000296565b620004e78282856200040c565b600060209050601f8311600181146200051f57600084156200050a578287015190505b62000516858262000489565b86555062000586565b601f1984166200052f86620002cb565b60005b82811015620005595784890151825560018201915060208501945060208101905062000532565b8683101562000579578489015162000575601f89168262000469565b8355505b6001600288020188555050505b505050505050565b612d74806200059e6000396000f3fe6080604052600436106100a75760003560e01c80639cd441da116100645780639cd441da1461015e578063a22280a61461017a578063d4cadf6814610196578063f2fde38b146101c2578063f694f7d1146101eb578063fc0c546a14610216576100a7565b80632eab2841146100ac57806358ad6de4146100c8578063715018a6146100e45780638259e6a0146100fb578063857620e1146101175780638da5cb5b14610133575b600080fd5b6100c660048036038101906100c19190611fd3565b610241565b005b6100e260048036038101906100dd9190612000565b610469565b005b3480156100f057600080fd5b506100f961098a565b005b61011560048036038101906101109190611fd3565b61099e565b005b610131600480360381019061012c9190612040565b610da7565b005b34801561013f57600080fd5b50610148611413565b60405161015591906120d4565b60405180910390f35b61017860048036038101906101739190612000565b61143c565b005b610194600480360381019061018f9190612000565b61188d565b005b3480156101a257600080fd5b506101ab611aff565b6040516101b99291906120fe565b60405180910390f35b3480156101ce57600080fd5b506101e960048036038101906101e49190612153565b611b10565b005b3480156101f757600080fd5b50610200611b93565b60405161020d9190612210565b60405180910390f35b34801561022257600080fd5b5061022b611c21565b6040516102389190612291565b60405180910390f35b600260009054906101000a900460ff1615610291576040517f08c379a0000000000000000000000000000000000000000000000000000000008152600401610288906122f8565b60405180910390fd5b6001600260006101000a81548160ff02191690831515021790555060006102b6611c47565b90508181106102fa576040517f08c379a00000000000000000000000000000000000000000000000000000000081526004016102f1906123b0565b60405180910390fd5b6000600c54610307611c7e565b3461031291906123ff565b61031c9190612470565b90506000813461032c91906124a1565b905060008260055461033e91906124d5565b6004548461034c91906123ff565b6103569190612470565b90506000600360009054906101000a900473ffffffffffffffffffffffffffffffffffffffff1673ffffffffffffffffffffffffffffffffffffffff1663a9059cbb33846040518363ffffffff1660e01b81526004016103b7929190612509565b6020604051808303816000875af11580156103d6573d6000803e3d6000fd5b505050506040513d601f19601f820116820180604052508101906103fa919061256a565b90508061040a57610409612597565b5b8160045461041891906124a1565b6004819055508360055461042c91906124d5565b6005819055508260075461044091906124d5565b60078190555050505050506000600260006101000a81548160ff02191690831515021790555050565b81816000610475611c95565b90506104986040518060600160405280603b8152602001612d04603b9139611ccc565b6104a181611d65565b6104aa83611d65565b6104b382611d65565b6104d46040518060600160405280603b8152602001612d04603b9139611ccc565b828110610516576040517f08c379a000000000000000000000000000000000000000000000000000000000815260040161050d90612612565b60405180910390fd5b818111610558576040517f08c379a000000000000000000000000000000000000000000000000000000000815260040161054f9061267e565b60405180910390fd5b600260009054906101000a900460ff16156105a8576040517f08c379a000000000000000000000000000000000000000000000000000000000815260040161059f906122f8565b60405180910390fd5b6001600260006101000a81548160ff0219169083151502179055506000600860003373ffffffffffffffffffffffffffffffffffffffff1673ffffffffffffffffffffffffffffffffffffffff1681526020019081526020016000205490506000600a548260055461061a91906123ff565b6106249190612470565b90506000600a548360045461063991906123ff565b6106439190612470565b90506000600360009054906101000a900473ffffffffffffffffffffffffffffffffffffffff1673ffffffffffffffffffffffffffffffffffffffff1663a9059cbb33846040518363ffffffff1660e01b81526004016106a4929190612509565b6020604051808303816000875af11580156106c3573d6000803e3d6000fd5b505050506040513d601f19601f820116820180604052508101906106e7919061256a565b9050806106f7576106f6612597565b5b3373ffffffffffffffffffffffffffffffffffffffff166108fc849081150290604051600060405180830381858888f1935050505015801561073d573d6000803e3d6000fd5b506000600a548560075461075191906123ff565b61075b9190612470565b90506000600a548660065461077091906123ff565b61077a9190612470565b90506000600360009054906101000a900473ffffffffffffffffffffffffffffffffffffffff1673ffffffffffffffffffffffffffffffffffffffff1663a9059cbb33846040518363ffffffff1660e01b81526004016107db929190612509565b6020604051808303816000875af11580156107fa573d6000803e3d6000fd5b505050506040513d601f19601f8201168201806040525081019061081e919061256a565b90508061082e5761082d612597565b5b3373ffffffffffffffffffffffffffffffffffffffff166108fc849081150290604051600060405180830381858888f19350505050158015610874573d6000803e3d6000fd5b508460045461088391906124a1565b6004819055508560055461089791906124a1565b600581905550600860003373ffffffffffffffffffffffffffffffffffffffff1673ffffffffffffffffffffffffffffffffffffffff16815260200190815260200160002054600a546108ea91906124a1565b600a819055506000600860003373ffffffffffffffffffffffffffffffffffffffff1673ffffffffffffffffffffffffffffffffffffffff168152602001908152602001600020819055508560055461094391906124a1565b8560045461095191906124a1565b61095b91906123ff565b600d81905550505050505050506000600260006101000a81548160ff0219169083151502179055505050505050565b610992611dfe565b61099c6000611e7c565b565b6109a6611dfe565b6000600454146109eb576040517f08c379a00000000000000000000000000000000000000000000000000000000081526004016109e2906126ea565b60405180910390fd5b600060055414610a30576040517f08c379a0000000000000000000000000000000000000000000000000000000008152600401610a2790612756565b60405180910390fd5b60003411610a73576040517f08c379a0000000000000000000000000000000000000000000000000000000008152600401610a6a906127c2565b60405180910390fd5b610ab16040518060400160405280600a81526020017f637265617465506f6f6c00000000000000000000000000000000000000000000815250611ccc565b610aba34611d65565b6000600360009054906101000a900473ffffffffffffffffffffffffffffffffffffffff1673ffffffffffffffffffffffffffffffffffffffff166370a08231336040518263ffffffff1660e01b8152600401610b1791906120d4565b602060405180830381865afa158015610b34573d6000803e3d6000fd5b505050506040513d601f19601f82011682018060405250810190610b5891906127f7565b9050610b6381611d65565b610b6c82611d65565b80821115610baf576040517f08c379a0000000000000000000000000000000000000000000000000000000008152600401610ba690612896565b60405180910390fd5b60008211610bf2576040517f08c379a0000000000000000000000000000000000000000000000000000000008152600401610be990612902565b60405180910390fd5b600360009054906101000a900473ffffffffffffffffffffffffffffffffffffffff1673ffffffffffffffffffffffffffffffffffffffff166323b872dd3330856040518463ffffffff1660e01b8152600401610c5193929190612922565b6020604051808303816000875af1158015610c70573d6000803e3d6000fd5b505050506040513d601f19601f82011682018060405250810190610c94919061256a565b50600360009054906101000a900473ffffffffffffffffffffffffffffffffffffffff1673ffffffffffffffffffffffffffffffffffffffff166370a08231306040518263ffffffff1660e01b8152600401610cf091906120d4565b602060405180830381865afa158015610d0d573d6000803e3d6000fd5b505050506040513d601f19601f82011682018060405250810190610d3191906127f7565b60048190555034600581905550600554600454610d4e91906123ff565b600d81905550620186a0600a819055506064600860003373ffffffffffffffffffffffffffffffffffffffff1673ffffffffffffffffffffffffffffffffffffffff168152602001908152602001600020819055505050565b81816000610db3611c95565b9050610dd66040518060600160405280603b8152602001612d04603b9139611ccc565b610ddf81611d65565b610de883611d65565b610df182611d65565b610e126040518060600160405280603b8152602001612d04603b9139611ccc565b828110610e54576040517f08c379a0000000000000000000000000000000000000000000000000000000008152600401610e4b90612612565b60405180910390fd5b818111610e96576040517f08c379a0000000000000000000000000000000000000000000000000000000008152600401610e8d9061267e565b60405180910390fd5b600260009054906101000a900460ff1615610ee6576040517f08c379a0000000000000000000000000000000000000000000000000000000008152600401610edd906122f8565b60405180910390fd5b6001600260006101000a81548160ff0219169083151502179055506000600860003373ffffffffffffffffffffffffffffffffffffffff1673ffffffffffffffffffffffffffffffffffffffff168152602001908152602001600020549050610f836040518060400160405280601f81526020017f3d3d3d3d3d3d2072656d6f76654c6971756964697479203d3d3d3d3d3d3d3d00815250611ccc565b610f8c87611d65565b610faf600a5482600554610fa091906123ff565b610faa9190612470565b611d65565b600a5481600554610fc091906123ff565b610fca9190612470565b87111561100c576040517f08c379a0000000000000000000000000000000000000000000000000000000008152600401611003906129cb565b60405180910390fd5b60006005546004548961101f91906123ff565b6110299190612470565b90506000600360009054906101000a900473ffffffffffffffffffffffffffffffffffffffff1673ffffffffffffffffffffffffffffffffffffffff1663a9059cbb33846040518363ffffffff1660e01b815260040161108a929190612509565b6020604051808303816000875af11580156110a9573d6000803e3d6000fd5b505050506040513d601f19601f820116820180604052508101906110cd919061256a565b9050806110dd576110dc612597565b5b3373ffffffffffffffffffffffffffffffffffffffff166108fc8a9081150290604051600060405180830381858888f19350505050158015611123573d6000803e3d6000fd5b5060006005548a60075461113791906123ff565b6111419190612470565b905060006005548b60065461115691906123ff565b6111609190612470565b90506000600360009054906101000a900473ffffffffffffffffffffffffffffffffffffffff1673ffffffffffffffffffffffffffffffffffffffff1663a9059cbb33846040518363ffffffff1660e01b81526004016111c1929190612509565b6020604051808303816000875af11580156111e0573d6000803e3d6000fd5b505050506040513d601f19601f82011682018060405250810190611204919061256a565b90508061121457611213612597565b5b3373ffffffffffffffffffffffffffffffffffffffff166108fc849081150290604051600060405180830381858888f1935050505015801561125a573d6000803e3d6000fd5b508460045461126991906124a1565b6004819055508b60055461127d91906124a1565b6005819055508160065461129191906124a1565b600681905550826007546112a591906124a1565b60078190555060006005548d600a546112be91906123ff565b6112c89190612470565b9050611312600860003373ffffffffffffffffffffffffffffffffffffffff1673ffffffffffffffffffffffffffffffffffffffff16815260200190815260200160002054611d65565b61131b81611d65565b80600860003373ffffffffffffffffffffffffffffffffffffffff1673ffffffffffffffffffffffffffffffffffffffff1681526020019081526020016000205461136691906124a1565b600860003373ffffffffffffffffffffffffffffffffffffffff1673ffffffffffffffffffffffffffffffffffffffff1681526020019081526020016000208190555080600a546113b791906124a1565b600a819055508c6005546113cb91906124a1565b866004546113d991906124a1565b6113e391906123ff565b600d81905550505050505050506000600260006101000a81548160ff021916908315150217905550505050505050565b60008060009054906101000a900473ffffffffffffffffffffffffffffffffffffffff16905090565b81816000611448611c95565b905061146b6040518060600160405280603b8152602001612d04603b9139611ccc565b61147481611d65565b61147d83611d65565b61148682611d65565b6114a76040518060600160405280603b8152602001612d04603b9139611ccc565b8281106114e9576040517f08c379a00000000000000000000000000000000000000000000000000000000081526004016114e090612612565b60405180910390fd5b81811161152b576040517f08c379a00000000000000000000000000000000000000000000000000000000081526004016115229061267e565b60405180910390fd5b600260009054906101000a900460ff161561157b576040517f08c379a0000000000000000000000000000000000000000000000000000000008152600401611572906122f8565b60405180910390fd5b6001600260006101000a81548160ff0219169083151502179055506000600554600454346115a991906123ff565b6115b39190612470565b90506000600360009054906101000a900473ffffffffffffffffffffffffffffffffffffffff1673ffffffffffffffffffffffffffffffffffffffff166370a08231336040518263ffffffff1660e01b815260040161161291906120d4565b602060405180830381865afa15801561162f573d6000803e3d6000fd5b505050506040513d601f19601f8201168201806040525081019061165391906127f7565b905080821115611698576040517f08c379a000000000000000000000000000000000000000000000000000000000815260040161168f90612a83565b60405180910390fd5b6000600360009054906101000a900473ffffffffffffffffffffffffffffffffffffffff1673ffffffffffffffffffffffffffffffffffffffff166323b872dd3330866040518463ffffffff1660e01b81526004016116f993929190612922565b6020604051808303816000875af1158015611718573d6000803e3d6000fd5b505050506040513d601f19601f8201168201806040525081019061173c919061256a565b90508061174c5761174b612597565b5b6004548361175a91906124d5565b6004819055506005543461176e91906124d5565b600581905550600060055434600a5461178791906123ff565b6117919190612470565b90506000600860003373ffffffffffffffffffffffffffffffffffffffff1673ffffffffffffffffffffffffffffffffffffffff16815260200190815260200160002054905081816117e391906124d5565b600860003373ffffffffffffffffffffffffffffffffffffffff1673ffffffffffffffffffffffffffffffffffffffff1681526020019081526020016000208190555081600a5461183491906124d5565b600a819055506005543461184891906124d5565b6004548661185691906124d5565b61186091906123ff565b600d8190555050505050506000600260006101000a81548160ff0219169083151502179055505050505050565b600260009054906101000a900460ff16156118dd576040517f08c379a00000000000000000000000000000000000000000000000000000000081526004016118d4906122f8565b60405180910390fd5b6001600260006101000a81548160ff0219169083151502179055506000611902611c95565b9050818110611946576040517f08c379a000000000000000000000000000000000000000000000000000000000815260040161193d90612b3b565b60405180910390fd5b6000600c54611953611c7e565b8561195e91906123ff565b6119689190612470565b90506000818561197891906124a1565b905060008260045461198a91906124d5565b6005548461199891906123ff565b6119a29190612470565b90506000600360009054906101000a900473ffffffffffffffffffffffffffffffffffffffff1673ffffffffffffffffffffffffffffffffffffffff166323b872dd33308a6040518463ffffffff1660e01b8152600401611a0593929190612922565b6020604051808303816000875af1158015611a24573d6000803e3d6000fd5b505050506040513d601f19601f82011682018060405250810190611a48919061256a565b905080611a5857611a57612597565b5b3373ffffffffffffffffffffffffffffffffffffffff166108fc839081150290604051600060405180830381858888f19350505050158015611a9e573d6000803e3d6000fd5b5083600454611aad91906124d5565b60048190555081600554611ac191906124a1565b60058190555082600654611ad591906124d5565b60068190555050505050506000600260006101000a81548160ff0219169083151502179055505050565b600080600b54600c54915091509091565b611b18611dfe565b600073ffffffffffffffffffffffffffffffffffffffff168173ffffffffffffffffffffffffffffffffffffffff1603611b87576040517f08c379a0000000000000000000000000000000000000000000000000000000008152600401611b7e90612bcd565b60405180910390fd5b611b9081611e7c565b50565b60018054611ba090612c1c565b80601f0160208091040260200160405190810160405280929190818152602001828054611bcc90612c1c565b8015611c195780601f10611bee57610100808354040283529160200191611c19565b820191906000526020600020905b815481529060010190602001808311611bfc57829003601f168201915b505050505081565b600360009054906101000a900473ffffffffffffffffffffffffffffffffffffffff1681565b6000670de0b6b3a7640000600454600554600e54611c6591906123ff565b611c6f9190612470565b611c799190612470565b905090565b6000600b54600c54611c9091906124a1565b905090565b6000600554670de0b6b3a7640000600454600e54611cb391906123ff565b611cbd91906123ff565b611cc79190612470565b905090565b611d6281604051602401611ce09190612210565b6040516020818303038152906040527f41304fac000000000000000000000000000000000000000000000000000000007bffffffffffffffffffffffffffffffffffffffffffffffffffffffff19166020820180517bffffffffffffffffffffffffffffffffffffffffffffffffffffffff8381831617835250505050611f40565b50565b611dfb81604051602401611d799190612c4d565b6040516020818303038152906040527ff82c50f1000000000000000000000000000000000000000000000000000000007bffffffffffffffffffffffffffffffffffffffffffffffffffffffff19166020820180517bffffffffffffffffffffffffffffffffffffffffffffffffffffffff8381831617835250505050611f40565b50565b611e06611f5a565b73ffffffffffffffffffffffffffffffffffffffff16611e24611413565b73ffffffffffffffffffffffffffffffffffffffff1614611e7a576040517f08c379a0000000000000000000000000000000000000000000000000000000008152600401611e7190612cb4565b60405180910390fd5b565b60008060009054906101000a900473ffffffffffffffffffffffffffffffffffffffff169050816000806101000a81548173ffffffffffffffffffffffffffffffffffffffff021916908373ffffffffffffffffffffffffffffffffffffffff1602179055508173ffffffffffffffffffffffffffffffffffffffff168173ffffffffffffffffffffffffffffffffffffffff167f8be0079c531659141344cd1fd0a4f28419497f9722a3daafe3b4186f6b6457e060405160405180910390a35050565b611f5781611f4f611f62611f83565b63ffffffff16565b50565b600033905090565b60006a636f6e736f6c652e6c6f679050600080835160208501845afa505050565b611f8e819050919050565b611f96612cd4565b565b600080fd5b6000819050919050565b611fb081611f9d565b8114611fbb57600080fd5b50565b600081359050611fcd81611fa7565b92915050565b600060208284031215611fe957611fe8611f98565b5b6000611ff784828501611fbe565b91505092915050565b6000806040838503121561201757612016611f98565b5b600061202585828601611fbe565b925050602061203685828601611fbe565b9150509250929050565b60008060006060848603121561205957612058611f98565b5b600061206786828701611fbe565b935050602061207886828701611fbe565b925050604061208986828701611fbe565b9150509250925092565b600073ffffffffffffffffffffffffffffffffffffffff82169050919050565b60006120be82612093565b9050919050565b6120ce816120b3565b82525050565b60006020820190506120e960008301846120c5565b92915050565b6120f881611f9d565b82525050565b600060408201905061211360008301856120ef565b61212060208301846120ef565b9392505050565b612130816120b3565b811461213b57600080fd5b50565b60008135905061214d81612127565b92915050565b60006020828403121561216957612168611f98565b5b60006121778482850161213e565b91505092915050565b600081519050919050565b600082825260208201905092915050565b60005b838110156121ba57808201518184015260208101905061219f565b60008484015250505050565b6000601f19601f8301169050919050565b60006121e282612180565b6121ec818561218b565b93506121fc81856020860161219c565b612205816121c6565b840191505092915050565b6000602082019050818103600083015261222a81846121d7565b905092915050565b6000819050919050565b600061225761225261224d84612093565b612232565b612093565b9050919050565b60006122698261223c565b9050919050565b600061227b8261225e565b9050919050565b61228b81612270565b82525050565b60006020820190506122a66000830184612282565b92915050565b7f5265656e7472616e637920646574656374656400000000000000000000000000600082015250565b60006122e260138361218b565b91506122ed826122ac565b602082019050919050565b60006020820190508181036000830152612311816122d5565b9050919050565b7f746f6b656e2070726963652068617320696e63726561736564207369676e696660008201527f6963616e746c792e20536c6970706167652061626f727473207468652074726160208201527f6e73616374696f6e000000000000000000000000000000000000000000000000604082015250565b600061239a60488361218b565b91506123a582612318565b606082019050919050565b600060208201905081810360008301526123c98161238d565b9050919050565b7f4e487b7100000000000000000000000000000000000000000000000000000000600052601160045260246000fd5b600061240a82611f9d565b915061241583611f9d565b925082820261242381611f9d565b9150828204841483151761243a576124396123d0565b5b5092915050565b7f4e487b7100000000000000000000000000000000000000000000000000000000600052601260045260246000fd5b600061247b82611f9d565b915061248683611f9d565b92508261249657612495612441565b5b828204905092915050565b60006124ac82611f9d565b91506124b783611f9d565b92508282039050818111156124cf576124ce6123d0565b5b92915050565b60006124e082611f9d565b91506124eb83611f9d565b9250828201905080821115612503576125026123d0565b5b92915050565b600060408201905061251e60008301856120c5565b61252b60208301846120ef565b9392505050565b60008115159050919050565b61254781612532565b811461255257600080fd5b50565b6000815190506125648161253e565b92915050565b6000602082840312156125805761257f611f98565b5b600061258e84828501612555565b91505092915050565b7f4e487b7100000000000000000000000000000000000000000000000000000000600052600160045260246000fd5b7f65786368616e6765207261746520746f6f206869676800000000000000000000600082015250565b60006125fc60168361218b565b9150612607826125c6565b602082019050919050565b6000602082019050818103600083015261262b816125ef565b9050919050565b7f65786368616e6765207261746520746f6f206c6f770000000000000000000000600082015250565b600061266860158361218b565b915061267382612632565b602082019050919050565b600060208201905081810360008301526126978161265b565b9050919050565b7f546f6b656e20726573657276657320776173206e6f7420300000000000000000600082015250565b60006126d460188361218b565b91506126df8261269e565b602082019050919050565b60006020820190508181036000830152612703816126c7565b9050919050565b7f45544820726573657276657320776173206e6f7420302e000000000000000000600082015250565b600061274060178361218b565b915061274b8261270a565b602082019050919050565b6000602082019050818103600083015261276f81612733565b9050919050565b7f4e6565642065746820746f2063726561746520706f6f6c2e0000000000000000600082015250565b60006127ac60188361218b565b91506127b782612776565b602082019050919050565b600060208201905081810360008301526127db8161279f565b9050919050565b6000815190506127f181611fa7565b92915050565b60006020828403121561280d5761280c611f98565b5b600061281b848285016127e2565b91505092915050565b7f4e6f74206861766520656e6f75676820746f6b656e7320746f2063726561746560008201527f2074686520706f6f6c0000000000000000000000000000000000000000000000602082015250565b600061288060298361218b565b915061288b82612824565b604082019050919050565b600060208201905081810360008301526128af81612873565b9050919050565b7f4e65656420746f6b656e7320746f2063726561746520706f6f6c2e0000000000600082015250565b60006128ec601b8361218b565b91506128f7826128b6565b602082019050919050565b6000602082019050818103600083015261291b816128df565b9050919050565b600060608201905061293760008301866120c5565b61294460208301856120c5565b61295160408301846120ef565b949350505050565b7f7573657220646f65736e2774206861766520656e6f756768207368617265732060008201527f6f6620706f6f6c20746f2072656d6f76654c6971756964697479000000000000602082015250565b60006129b5603a8361218b565b91506129c082612959565b604082019050919050565b600060208201905081810360008301526129e4816129a8565b9050919050565b7f52656d61696e696e672062616c616e6365206f66207468652073656e6420697360008201527f206e6f7420656e6f75676820746f2070726f7669646520746865206c6971756960208201527f6469747900000000000000000000000000000000000000000000000000000000604082015250565b6000612a6d60448361218b565b9150612a78826129eb565b606082019050919050565b60006020820190508181036000830152612a9c81612a60565b9050919050565b7f4574682070726963652068617320696e63726561736564207369676e6966696360008201527f616e746c792e20536c6970706167652061626f72747320746865207472616e7360208201527f616374696f6e0000000000000000000000000000000000000000000000000000604082015250565b6000612b2560468361218b565b9150612b3082612aa3565b606082019050919050565b60006020820190508181036000830152612b5481612b18565b9050919050565b7f4f776e61626c653a206e6577206f776e657220697320746865207a65726f206160008201527f6464726573730000000000000000000000000000000000000000000000000000602082015250565b6000612bb760268361218b565b9150612bc282612b5b565b604082019050919050565b60006020820190508181036000830152612be681612baa565b9050919050565b7f4e487b7100000000000000000000000000000000000000000000000000000000600052602260045260246000fd5b60006002820490506001821680612c3457607f821691505b602082108103612c4757612c46612bed565b5b50919050565b6000602082019050612c6260008301846120ef565b92915050565b7f4f776e61626c653a2063616c6c6572206973206e6f7420746865206f776e6572600082015250565b6000612c9e60208361218b565b9150612ca982612c68565b602082019050919050565b60006020820190508181036000830152612ccd81612c91565b9050919050565b7f4e487b7100000000000000000000000000000000000000000000000000000000600052605160045260246000fdfe3d3d3d3d3d3d3d3d3d3d3d3d3d3d3d3d3d3d3d3d3d3d3d3d3d3d3d3d3d3d3d3d3d3d3d3d3d3d3d3d3d3d3d3d3d3d3d3d3d3d3d3d3d3d3d3d3d3d3da2646970667358221220fe1a2c6b4182df2cbdf0197aa7f25f7011fa5d271e20e6a710729b0d7fe8ae1464736f6c63430008110033",
  "linkReferences": {},
  "deployedLinkReferences": {}
}