{
  "_format": "hh-sol-artifact-1",
  "contractName": "TokenExchange",
  "sourceName": "contracts/exchange.sol",
  "abi": [
    {
      "inputs": [],
      "stateMutability": "nonpayable",
      "type": "constructor"
    },
    {
      "anonymous": false,
      "inputs": [
        {
          "indexed": true,
          "internalType": "address",
          "name": "previousOwner",
          "type": "address"
        },
        {
          "indexed": true,
          "internalType": "address",
          "name": "newOwner",
          "type": "address"
        }
      ],
      "name": "OwnershipTransferred",
      "type": "event"
    },
    {
      "anonymous": false,
      "inputs": [
        {
          "indexed": false,
          "internalType": "uint256",
          "name": "message",
          "type": "uint256"
        }
      ],
      "name": "SwapTokensForETHEvent",
      "type": "event"
    },
    {
      "inputs": [
        {
          "internalType": "uint256",
          "name": "max_token_eth_ex_rate",
          "type": "uint256"
        },
        {
          "internalType": "uint256",
          "name": "min_token_eth_ex_rate",
          "type": "uint256"
        }
      ],
      "name": "addLiquidity",
      "outputs": [],
      "stateMutability": "payable",
      "type": "function"
    },
    {
      "inputs": [
        {
          "internalType": "uint256",
          "name": "amountTokens",
          "type": "uint256"
        }
      ],
      "name": "createPool",
      "outputs": [],
      "stateMutability": "payable",
      "type": "function"
    },
    {
      "inputs": [],
      "name": "exchange_name",
      "outputs": [
        {
          "internalType": "string",
          "name": "",
          "type": "string"
        }
      ],
      "stateMutability": "view",
      "type": "function"
    },
    {
      "inputs": [],
      "name": "getSwapFee",
      "outputs": [
        {
          "internalType": "uint256",
          "name": "",
          "type": "uint256"
        },
        {
          "internalType": "uint256",
          "name": "",
          "type": "uint256"
        }
      ],
      "stateMutability": "view",
      "type": "function"
    },
    {
      "inputs": [],
      "name": "owner",
      "outputs": [
        {
          "internalType": "address",
          "name": "",
          "type": "address"
        }
      ],
      "stateMutability": "view",
      "type": "function"
    },
    {
      "inputs": [
        {
          "internalType": "uint256",
          "name": "max_token_eth_ex_rate",
          "type": "uint256"
        },
        {
          "internalType": "uint256",
          "name": "min_token_eth_ex_rate",
          "type": "uint256"
        },
        {
          "internalType": "bool",
          "name": "extraCreditMode",
          "type": "bool"
        }
      ],
      "name": "removeAllLiquidity",
      "outputs": [],
      "stateMutability": "payable",
      "type": "function"
    },
    {
      "inputs": [
        {
          "internalType": "uint256",
          "name": "amountETH",
          "type": "uint256"
        },
        {
          "internalType": "uint256",
          "name": "max_token_eth_ex_rate",
          "type": "uint256"
        },
        {
          "internalType": "uint256",
          "name": "min_token_eth_ex_rate",
          "type": "uint256"
        },
        {
          "internalType": "bool",
          "name": "extraCreditMode",
          "type": "bool"
        }
      ],
      "name": "removeLiquidity",
      "outputs": [],
      "stateMutability": "payable",
      "type": "function"
    },
    {
      "inputs": [],
      "name": "renounceOwnership",
      "outputs": [],
      "stateMutability": "nonpayable",
      "type": "function"
    },
    {
      "inputs": [
        {
          "internalType": "uint256",
          "name": "max_exchange_rate",
          "type": "uint256"
        }
      ],
      "name": "swapETHForTokens",
      "outputs": [],
      "stateMutability": "payable",
      "type": "function"
    },
    {
      "inputs": [
        {
          "internalType": "uint256",
          "name": "amountTokens",
          "type": "uint256"
        },
        {
          "internalType": "uint256",
          "name": "max_exchange_rate",
          "type": "uint256"
        }
      ],
      "name": "swapTokensForETH",
      "outputs": [],
      "stateMutability": "payable",
      "type": "function"
    },
    {
      "inputs": [],
      "name": "token",
      "outputs": [
        {
          "internalType": "contract Token",
          "name": "",
          "type": "address"
        }
      ],
      "stateMutability": "view",
      "type": "function"
    },
    {
      "inputs": [
        {
          "internalType": "address",
          "name": "newOwner",
          "type": "address"
        }
      ],
      "name": "transferOwnership",
      "outputs": [],
      "stateMutability": "nonpayable",
      "type": "function"
    }
  ],
  "bytecode": "0x60806040526040518060400160405280600981526020017f6373323531737761700000000000000000000000000000000000000000000000815250600190816200004a9190620004a7565b50735fbdb2315678afecb367f032d93f642f64180aa3600260016101000a81548173ffffffffffffffffffffffffffffffffffffffff021916908373ffffffffffffffffffffffffffffffffffffffff160217905550600260019054906101000a900473ffffffffffffffffffffffffffffffffffffffff16600360006101000a81548173ffffffffffffffffffffffffffffffffffffffff021916908373ffffffffffffffffffffffffffffffffffffffff16021790555060006004556000600555600060065560006007556000600c556003600d556064600e55620186a06010553480156200013a57600080fd5b506200015b6200014f6200016160201b60201c565b6200016960201b60201c565b6200058e565b600033905090565b60008060009054906101000a900473ffffffffffffffffffffffffffffffffffffffff169050816000806101000a81548173ffffffffffffffffffffffffffffffffffffffff021916908373ffffffffffffffffffffffffffffffffffffffff1602179055508173ffffffffffffffffffffffffffffffffffffffff168173ffffffffffffffffffffffffffffffffffffffff167f8be0079c531659141344cd1fd0a4f28419497f9722a3daafe3b4186f6b6457e060405160405180910390a35050565b600081519050919050565b7f4e487b7100000000000000000000000000000000000000000000000000000000600052604160045260246000fd5b7f4e487b7100000000000000000000000000000000000000000000000000000000600052602260045260246000fd5b60006002820490506001821680620002af57607f821691505b602082108103620002c557620002c462000267565b5b50919050565b60008190508160005260206000209050919050565b60006020601f8301049050919050565b600082821b905092915050565b6000600883026200032f7fffffffffffffffffffffffffffffffffffffffffffffffffffffffffffffffff82620002f0565b6200033b8683620002f0565b95508019841693508086168417925050509392505050565b6000819050919050565b6000819050919050565b600062000388620003826200037c8462000353565b6200035d565b62000353565b9050919050565b6000819050919050565b620003a48362000367565b620003bc620003b3826200038f565b848454620002fd565b825550505050565b600090565b620003d3620003c4565b620003e081848462000399565b505050565b5b818110156200040857620003fc600082620003c9565b600181019050620003e6565b5050565b601f82111562000457576200042181620002cb565b6200042c84620002e0565b810160208510156200043c578190505b620004546200044b85620002e0565b830182620003e5565b50505b505050565b600082821c905092915050565b60006200047c600019846008026200045c565b1980831691505092915050565b600062000497838362000469565b9150826002028217905092915050565b620004b2826200022d565b67ffffffffffffffff811115620004ce57620004cd62000238565b5b620004da825462000296565b620004e78282856200040c565b600060209050601f8311600181146200051f57600084156200050a578287015190505b62000516858262000489565b86555062000586565b601f1984166200052f86620002cb565b60005b82811015620005595784890151825560018201915060208501945060208101905062000532565b8683101562000579578489015162000575601f89168262000469565b8355505b6001600288020188555050505b505050505050565b6133cd806200059e6000396000f3fe6080604052600436106100a75760003560e01c8063a22280a611610064578063a22280a61461015e578063b46d4b051461017a578063d4cadf6814610196578063f2fde38b146101c2578063f694f7d1146101eb578063fc0c546a14610216576100a7565b8063221a156a146100ac5780632eab2841146100c8578063715018a6146100e45780638259e6a0146100fb5780638da5cb5b146101175780639cd441da14610142575b600080fd5b6100c660048036038101906100c191906123c7565b610241565b005b6100e260048036038101906100dd919061242e565b6108b4565b005b3480156100f057600080fd5b506100f9610bf7565b005b6101156004803603810190610110919061242e565b610c0b565b005b34801561012357600080fd5b5061012c610fbb565b604051610139919061249c565b60405180910390f35b61015c600480360381019061015791906124b7565b610fe4565b005b610178600480360381019061017391906124b7565b6114e1565b005b610194600480360381019061018f91906124f7565b61186e565b005b3480156101a257600080fd5b506101ab611e17565b6040516101b9929190612559565b60405180910390f35b3480156101ce57600080fd5b506101e960048036038101906101e491906125ae565b611e28565b005b3480156101f757600080fd5b50610200611eab565b60405161020d919061266b565b60405180910390f35b34801561022257600080fd5b5061022b611f39565b60405161023891906126ec565b60405180910390f35b8282600061024d611f5f565b9050828110610291576040517f08c379a000000000000000000000000000000000000000000000000000000000815260040161028890612753565b60405180910390fd5b8181116102d3576040517f08c379a00000000000000000000000000000000000000000000000000000000081526004016102ca906127bf565b60405180910390fd5b600260009054906101000a900460ff1615610323576040517f08c379a000000000000000000000000000000000000000000000000000000000815260040161031a9061282b565b60405180910390fd5b6001600260006101000a81548160ff0219169083151502179055506000600860003373ffffffffffffffffffffffffffffffffffffffff1673ffffffffffffffffffffffffffffffffffffffff168152602001908152602001600020549050600c5481600554610393919061287a565b61039d91906128eb565b8811156103df576040517f08c379a00000000000000000000000000000000000000000000000000000000081526004016103d69061298e565b60405180910390fd5b60006005546004548a6103f2919061287a565b6103fc91906128eb565b905060008087156105215760006005548c600c5461041a919061287a565b61042491906128eb565b90506000600860003373ffffffffffffffffffffffffffffffffffffffff1673ffffffffffffffffffffffffffffffffffffffff1681526020019081526020016000205490508082600b60003373ffffffffffffffffffffffffffffffffffffffff1673ffffffffffffffffffffffffffffffffffffffff168152602001908152602001600020546104b6919061287a565b6104c091906128eb565b93508082600a60003373ffffffffffffffffffffffffffffffffffffffff1673ffffffffffffffffffffffffffffffffffffffff1681526020019081526020016000205461050e919061287a565b61051891906128eb565b9250505061055c565b6005548b600754610532919061287a565b61053c91906128eb565b91506005548b60065461054f919061287a565b61055991906128eb565b90505b8260045461056a91906129ae565b6004819055506001600454116105b5576040517f08c379a00000000000000000000000000000000000000000000000000000000081526004016105ac90612a54565b60405180910390fd5b8a6005546105c391906129ae565b600581905550670de0b6b3a764000060055411610615576040517f08c379a000000000000000000000000000000000000000000000000000000000815260040161060c90612ae6565b60405180910390fd5b8060065461062391906129ae565b6006819055508160075461063791906129ae565b60078190555060006005548c600c54610650919061287a565b61065a91906128eb565b90506106a4600860003373ffffffffffffffffffffffffffffffffffffffff1673ffffffffffffffffffffffffffffffffffffffff16815260200190815260200160002054611f96565b6106ad81611f96565b80600860003373ffffffffffffffffffffffffffffffffffffffff1673ffffffffffffffffffffffffffffffffffffffff168152602001908152602001600020546106f891906129ae565b600860003373ffffffffffffffffffffffffffffffffffffffff1673ffffffffffffffffffffffffffffffffffffffff1681526020019081526020016000208190555080600c5461074991906129ae565b600c819055508b60055461075d91906129ae565b8460045461076b91906129ae565b610775919061287a565b600f819055506000600360009054906101000a900473ffffffffffffffffffffffffffffffffffffffff1673ffffffffffffffffffffffffffffffffffffffff1663a9059cbb3385886107c89190612b06565b6040518363ffffffff1660e01b81526004016107e5929190612b3a565b6020604051808303816000875af1158015610804573d6000803e3d6000fd5b505050506040513d601f19601f820116820180604052508101906108289190612b78565b90508061083857610837612ba5565b5b3373ffffffffffffffffffffffffffffffffffffffff166108fc858f61085e9190612b06565b9081150290604051600060405180830381858888f19350505050158015610889573d6000803e3d6000fd5b505050505050506000600260006101000a81548160ff02191690831515021790555050505050505050565b600260009054906101000a900460ff1615610904576040517f08c379a00000000000000000000000000000000000000000000000000000000081526004016108fb9061282b565b60405180910390fd5b6001600260006101000a81548160ff021916908315150217905550600061092961202f565b905081811061096d576040517f08c379a000000000000000000000000000000000000000000000000000000000815260040161096490612c6c565b60405180910390fd5b6000600e5461097a612066565b34610985919061287a565b61098f91906128eb565b90506000813461099f91906129ae565b90506000826005546109b19190612b06565b600454846109bf919061287a565b6109c991906128eb565b9050806004546109d991906129ae565b600481905550826005546109ed9190612b06565b60058190555081600754610a019190612b06565b60078190555060005b600980549050811015610b2157600060098281548110610a2d57610a2c612c8c565b5b9060005260206000200160009054906101000a900473ffffffffffffffffffffffffffffffffffffffff1690506000600c54600860008473ffffffffffffffffffffffffffffffffffffffff1673ffffffffffffffffffffffffffffffffffffffff1681526020019081526020016000205486610aaa919061287a565b610ab491906128eb565b905080600b60008473ffffffffffffffffffffffffffffffffffffffff1673ffffffffffffffffffffffffffffffffffffffff1681526020019081526020016000206000828254610b059190612b06565b9250508190555050508080610b1990612cbb565b915050610a0a565b506000600360009054906101000a900473ffffffffffffffffffffffffffffffffffffffff1673ffffffffffffffffffffffffffffffffffffffff1663a9059cbb33846040518363ffffffff1660e01b8152600401610b81929190612b3a565b6020604051808303816000875af1158015610ba0573d6000803e3d6000fd5b505050506040513d601f19601f82011682018060405250810190610bc49190612b78565b905080610bd457610bd3612ba5565b5b50505050506000600260006101000a81548160ff02191690831515021790555050565b610bff61207d565b610c0960006120fb565b565b610c1361207d565b600060045414610c58576040517f08c379a0000000000000000000000000000000000000000000000000000000008152600401610c4f90612d4f565b60405180910390fd5b600060055414610c9d576040517f08c379a0000000000000000000000000000000000000000000000000000000008152600401610c9490612dbb565b60405180910390fd5b60003411610ce0576040517f08c379a0000000000000000000000000000000000000000000000000000000008152600401610cd790612e27565b60405180910390fd5b6000600360009054906101000a900473ffffffffffffffffffffffffffffffffffffffff1673ffffffffffffffffffffffffffffffffffffffff166370a08231336040518263ffffffff1660e01b8152600401610d3d919061249c565b602060405180830381865afa158015610d5a573d6000803e3d6000fd5b505050506040513d601f19601f82011682018060405250810190610d7e9190612e5c565b905080821115610dc3576040517f08c379a0000000000000000000000000000000000000000000000000000000008152600401610dba90612efb565b60405180910390fd5b60008211610e06576040517f08c379a0000000000000000000000000000000000000000000000000000000008152600401610dfd90612f67565b60405180910390fd5b600360009054906101000a900473ffffffffffffffffffffffffffffffffffffffff1673ffffffffffffffffffffffffffffffffffffffff166323b872dd3330856040518463ffffffff1660e01b8152600401610e6593929190612f87565b6020604051808303816000875af1158015610e84573d6000803e3d6000fd5b505050506040513d601f19601f82011682018060405250810190610ea89190612b78565b50600360009054906101000a900473ffffffffffffffffffffffffffffffffffffffff1673ffffffffffffffffffffffffffffffffffffffff166370a08231306040518263ffffffff1660e01b8152600401610f04919061249c565b602060405180830381865afa158015610f21573d6000803e3d6000fd5b505050506040513d601f19601f82011682018060405250810190610f459190612e5c565b60048190555034600581905550600554600454610f62919061287a565b600f81905550620186a0600c819055506064600860003373ffffffffffffffffffffffffffffffffffffffff1673ffffffffffffffffffffffffffffffffffffffff168152602001908152602001600020819055505050565b60008060009054906101000a900473ffffffffffffffffffffffffffffffffffffffff16905090565b81816000610ff0611f5f565b9050828110611034576040517f08c379a000000000000000000000000000000000000000000000000000000000815260040161102b90612753565b60405180910390fd5b818111611076576040517f08c379a000000000000000000000000000000000000000000000000000000000815260040161106d906127bf565b60405180910390fd5b600260009054906101000a900460ff16156110c6576040517f08c379a00000000000000000000000000000000000000000000000000000000081526004016110bd9061282b565b60405180910390fd5b6001600260006101000a81548160ff0219169083151502179055506000600554600454346110f4919061287a565b6110fe91906128eb565b90506000600360009054906101000a900473ffffffffffffffffffffffffffffffffffffffff1673ffffffffffffffffffffffffffffffffffffffff166370a08231336040518263ffffffff1660e01b815260040161115d919061249c565b602060405180830381865afa15801561117a573d6000803e3d6000fd5b505050506040513d601f19601f8201168201806040525081019061119e9190612e5c565b9050808211156111e3576040517f08c379a00000000000000000000000000000000000000000000000000000000081526004016111da90613056565b60405180910390fd5b6000600360009054906101000a900473ffffffffffffffffffffffffffffffffffffffff1673ffffffffffffffffffffffffffffffffffffffff166323b872dd3330866040518463ffffffff1660e01b815260040161124493929190612f87565b6020604051808303816000875af1158015611263573d6000803e3d6000fd5b505050506040513d601f19601f820116820180604052508101906112879190612b78565b90508061129757611296612ba5565b5b600454836112a59190612b06565b600481905550600554346112b99190612b06565b600581905550600060055434600c546112d2919061287a565b6112dc91906128eb565b90506000600860003373ffffffffffffffffffffffffffffffffffffffff1673ffffffffffffffffffffffffffffffffffffffff168152602001908152602001600020549050818161132e9190612b06565b600860003373ffffffffffffffffffffffffffffffffffffffff1673ffffffffffffffffffffffffffffffffffffffff1681526020019081526020016000208190555081600c5461137f9190612b06565b600c81905550600554346113939190612b06565b600454866113a19190612b06565b6113ab919061287a565b600f819055506000805b60098054905081101561144f57600981815481106113d6576113d5612c8c565b5b9060005260206000200160009054906101000a900473ffffffffffffffffffffffffffffffffffffffff1673ffffffffffffffffffffffffffffffffffffffff163373ffffffffffffffffffffffffffffffffffffffff160361143c576001915061144f565b808061144790612cbb565b9150506113b5565b50806114b9576009339080600181540180825580915050600190039060005260206000200160009091909190916101000a81548173ffffffffffffffffffffffffffffffffffffffff021916908373ffffffffffffffffffffffffffffffffffffffff1602179055505b5050505050506000600260006101000a81548160ff0219169083151502179055505050505050565b600260009054906101000a900460ff1615611531576040517f08c379a00000000000000000000000000000000000000000000000000000000081526004016115289061282b565b60405180910390fd5b6001600260006101000a81548160ff0219169083151502179055506000611556611f5f565b905081811061159a576040517f08c379a00000000000000000000000000000000000000000000000000000000081526004016115919061310e565b60405180910390fd5b6000600e546115a7612066565b856115b2919061287a565b6115bc91906128eb565b9050600081856115cc91906129ae565b90506000826004546115de9190612b06565b600554846115ec919061287a565b6115f691906128eb565b9050826004546116069190612b06565b6004819055508060055461161a91906129ae565b6005819055508160065461162e9190612b06565b60068190555060005b60098054905081101561174e5760006009828154811061165a57611659612c8c565b5b9060005260206000200160009054906101000a900473ffffffffffffffffffffffffffffffffffffffff1690506000600c54600860008473ffffffffffffffffffffffffffffffffffffffff1673ffffffffffffffffffffffffffffffffffffffff16815260200190815260200160002054866116d7919061287a565b6116e191906128eb565b905080600a60008473ffffffffffffffffffffffffffffffffffffffff1673ffffffffffffffffffffffffffffffffffffffff16815260200190815260200160002060008282546117329190612b06565b925050819055505050808061174690612cbb565b915050611637565b506000600360009054906101000a900473ffffffffffffffffffffffffffffffffffffffff1673ffffffffffffffffffffffffffffffffffffffff166323b872dd33308a6040518463ffffffff1660e01b81526004016117b093929190612f87565b6020604051808303816000875af11580156117cf573d6000803e3d6000fd5b505050506040513d601f19601f820116820180604052508101906117f39190612b78565b90508061180357611802612ba5565b5b3373ffffffffffffffffffffffffffffffffffffffff166108fc839081150290604051600060405180830381858888f19350505050158015611849573d6000803e3d6000fd5b5050505050506000600260006101000a81548160ff0219169083151502179055505050565b8282600061187a611f5f565b90508281106118be576040517f08c379a00000000000000000000000000000000000000000000000000000000081526004016118b590612753565b60405180910390fd5b818111611900576040517f08c379a00000000000000000000000000000000000000000000000000000000081526004016118f7906127bf565b60405180910390fd5b600260009054906101000a900460ff1615611950576040517f08c379a00000000000000000000000000000000000000000000000000000000081526004016119479061282b565b60405180910390fd5b6001600260006101000a81548160ff0219169083151502179055506000600860003373ffffffffffffffffffffffffffffffffffffffff1673ffffffffffffffffffffffffffffffffffffffff1681526020019081526020016000205490506000600c54826005546119c2919061287a565b6119cc91906128eb565b90506000600c54836004546119e1919061287a565b6119eb91906128eb565b90506000808815611b2757600b60003373ffffffffffffffffffffffffffffffffffffffff1673ffffffffffffffffffffffffffffffffffffffff168152602001908152602001600020549150600a60003373ffffffffffffffffffffffffffffffffffffffff1673ffffffffffffffffffffffffffffffffffffffff1681526020019081526020016000205490506000805b600980549050811015611b175760098181548110611a9f57611a9e612c8c565b5b9060005260206000200160009054906101000a900473ffffffffffffffffffffffffffffffffffffffff1673ffffffffffffffffffffffffffffffffffffffff163373ffffffffffffffffffffffffffffffffffffffff1603611b0457809150611b17565b8080611b0f90612cbb565b915050611a7e565b50611b21816121bf565b50611b62565b600c5485600754611b38919061287a565b611b4291906128eb565b9150600c5485600654611b55919061287a565b611b5f91906128eb565b90505b82600454611b7091906129ae565b600481905550600160045411611bbb576040517f08c379a0000000000000000000000000000000000000000000000000000000008152600401611bb290612a54565b60405180910390fd5b83600554611bc991906129ae565b600581905550670de0b6b3a764000060055411611c1b576040517f08c379a0000000000000000000000000000000000000000000000000000000008152600401611c1290612ae6565b60405180910390fd5b600860003373ffffffffffffffffffffffffffffffffffffffff1673ffffffffffffffffffffffffffffffffffffffff16815260200190815260200160002054600c54611c6891906129ae565b600c819055506000600860003373ffffffffffffffffffffffffffffffffffffffff1673ffffffffffffffffffffffffffffffffffffffff1681526020019081526020016000208190555083600554611cc191906129ae565b83600454611ccf91906129ae565b611cd9919061287a565b600f819055506000600360009054906101000a900473ffffffffffffffffffffffffffffffffffffffff1673ffffffffffffffffffffffffffffffffffffffff1663a9059cbb338487611d2c9190612b06565b6040518363ffffffff1660e01b8152600401611d49929190612b3a565b6020604051808303816000875af1158015611d68573d6000803e3d6000fd5b505050506040513d601f19601f82011682018060405250810190611d8c9190612b78565b905080611d9c57611d9b612ba5565b5b3373ffffffffffffffffffffffffffffffffffffffff166108fc8487611dc29190612b06565b9081150290604051600060405180830381858888f19350505050158015611ded573d6000803e3d6000fd5b505050505050506000600260006101000a81548160ff021916908315150217905550505050505050565b600080600d54600e54915091509091565b611e3061207d565b600073ffffffffffffffffffffffffffffffffffffffff168173ffffffffffffffffffffffffffffffffffffffff1603611e9f576040517f08c379a0000000000000000000000000000000000000000000000000000000008152600401611e96906131a0565b60405180910390fd5b611ea8816120fb565b50565b60018054611eb8906131ef565b80601f0160208091040260200160405190810160405280929190818152602001828054611ee4906131ef565b8015611f315780601f10611f0657610100808354040283529160200191611f31565b820191906000526020600020905b815481529060010190602001808311611f1457829003601f168201915b505050505081565b600360009054906101000a900473ffffffffffffffffffffffffffffffffffffffff1681565b6000600554670de0b6b3a7640000600454601054611f7d919061287a565b611f87919061287a565b611f9191906128eb565b905090565b61202c81604051602401611faa9190613220565b6040516020818303038152906040527ff82c50f1000000000000000000000000000000000000000000000000000000007bffffffffffffffffffffffffffffffffffffffffffffffffffffffff19166020820180517bffffffffffffffffffffffffffffffffffffffffffffffffffffffff83818316178352505050506122fc565b50565b6000670de0b6b3a764000060045460055460105461204d919061287a565b61205791906128eb565b61206191906128eb565b905090565b6000600d54600e5461207891906129ae565b905090565b612085612316565b73ffffffffffffffffffffffffffffffffffffffff166120a3610fbb565b73ffffffffffffffffffffffffffffffffffffffff16146120f9576040517f08c379a00000000000000000000000000000000000000000000000000000000081526004016120f090613287565b60405180910390fd5b565b60008060009054906101000a900473ffffffffffffffffffffffffffffffffffffffff169050816000806101000a81548173ffffffffffffffffffffffffffffffffffffffff021916908373ffffffffffffffffffffffffffffffffffffffff1602179055508173ffffffffffffffffffffffffffffffffffffffff168173ffffffffffffffffffffffffffffffffffffffff167f8be0079c531659141344cd1fd0a4f28419497f9722a3daafe3b4186f6b6457e060405160405180910390a35050565b6009805490508110612206576040517f08c379a00000000000000000000000000000000000000000000000000000000081526004016121fd90613319565b60405180910390fd5b6009600160098054905061221a91906129ae565b8154811061222b5761222a612c8c565b5b9060005260206000200160009054906101000a900473ffffffffffffffffffffffffffffffffffffffff166009828154811061226a57612269612c8c565b5b9060005260206000200160006101000a81548173ffffffffffffffffffffffffffffffffffffffff021916908373ffffffffffffffffffffffffffffffffffffffff16021790555060098054806122c4576122c3613339565b5b6001900381819060005260206000200160006101000a81549073ffffffffffffffffffffffffffffffffffffffff0219169055905550565b6123138161230b61231e61233f565b63ffffffff16565b50565b600033905090565b60006a636f6e736f6c652e6c6f679050600080835160208501845afa505050565b61234a819050919050565b612352613368565b565b600080fd5b6000819050919050565b61236c81612359565b811461237757600080fd5b50565b60008135905061238981612363565b92915050565b60008115159050919050565b6123a48161238f565b81146123af57600080fd5b50565b6000813590506123c18161239b565b92915050565b600080600080608085870312156123e1576123e0612354565b5b60006123ef8782880161237a565b94505060206124008782880161237a565b93505060406124118782880161237a565b9250506060612422878288016123b2565b91505092959194509250565b60006020828403121561244457612443612354565b5b60006124528482850161237a565b91505092915050565b600073ffffffffffffffffffffffffffffffffffffffff82169050919050565b60006124868261245b565b9050919050565b6124968161247b565b82525050565b60006020820190506124b1600083018461248d565b92915050565b600080604083850312156124ce576124cd612354565b5b60006124dc8582860161237a565b92505060206124ed8582860161237a565b9150509250929050565b6000806000606084860312156125105761250f612354565b5b600061251e8682870161237a565b935050602061252f8682870161237a565b9250506040612540868287016123b2565b9150509250925092565b61255381612359565b82525050565b600060408201905061256e600083018561254a565b61257b602083018461254a565b9392505050565b61258b8161247b565b811461259657600080fd5b50565b6000813590506125a881612582565b92915050565b6000602082840312156125c4576125c3612354565b5b60006125d284828501612599565b91505092915050565b600081519050919050565b600082825260208201905092915050565b60005b838110156126155780820151818401526020810190506125fa565b60008484015250505050565b6000601f19601f8301169050919050565b600061263d826125db565b61264781856125e6565b93506126578185602086016125f7565b61266081612621565b840191505092915050565b600060208201905081810360008301526126858184612632565b905092915050565b6000819050919050565b60006126b26126ad6126a88461245b565b61268d565b61245b565b9050919050565b60006126c482612697565b9050919050565b60006126d6826126b9565b9050919050565b6126e6816126cb565b82525050565b600060208201905061270160008301846126dd565b92915050565b7f65786368616e6765207261746520746f6f206869676800000000000000000000600082015250565b600061273d6016836125e6565b915061274882612707565b602082019050919050565b6000602082019050818103600083015261276c81612730565b9050919050565b7f65786368616e6765207261746520746f6f206c6f770000000000000000000000600082015250565b60006127a96015836125e6565b91506127b482612773565b602082019050919050565b600060208201905081810360008301526127d88161279c565b9050919050565b7f5265656e7472616e637920646574656374656400000000000000000000000000600082015250565b60006128156013836125e6565b9150612820826127df565b602082019050919050565b6000602082019050818103600083015261284481612808565b9050919050565b7f4e487b7100000000000000000000000000000000000000000000000000000000600052601160045260246000fd5b600061288582612359565b915061289083612359565b925082820261289e81612359565b915082820484148315176128b5576128b461284b565b5b5092915050565b7f4e487b7100000000000000000000000000000000000000000000000000000000600052601260045260246000fd5b60006128f682612359565b915061290183612359565b925082612911576129106128bc565b5b828204905092915050565b7f7573657220646f65736e2774206861766520656e6f756768207368617265732060008201527f6f6620706f6f6c20746f2072656d6f76654c6971756964697479000000000000602082015250565b6000612978603a836125e6565b91506129838261291c565b604082019050919050565b600060208201905081810360008301526129a78161296b565b9050919050565b60006129b982612359565b91506129c483612359565b92508282039050818111156129dc576129db61284b565b5b92915050565b7f4e65656420746f206d616b652073757265207468657265206973206174206c6560008201527f617374203120746f6b656e20696e20706f6f6c00000000000000000000000000602082015250565b6000612a3e6033836125e6565b9150612a49826129e2565b604082019050919050565b60006020820190508181036000830152612a6d81612a31565b9050919050565b7f4e65656420746f206d616b652073757265207468657265206973206174206c6560008201527f61737420312045544820696e20706f6c6c000000000000000000000000000000602082015250565b6000612ad06031836125e6565b9150612adb82612a74565b604082019050919050565b60006020820190508181036000830152612aff81612ac3565b9050919050565b6000612b1182612359565b9150612b1c83612359565b9250828201905080821115612b3457612b3361284b565b5b92915050565b6000604082019050612b4f600083018561248d565b612b5c602083018461254a565b9392505050565b600081519050612b728161239b565b92915050565b600060208284031215612b8e57612b8d612354565b5b6000612b9c84828501612b63565b91505092915050565b7f4e487b7100000000000000000000000000000000000000000000000000000000600052600160045260246000fd5b7f746f6b656e2070726963652068617320696e63726561736564207369676e696660008201527f6963616e746c792e20536c6970706167652061626f727473207468652074726160208201527f6e73616374696f6e000000000000000000000000000000000000000000000000604082015250565b6000612c566048836125e6565b9150612c6182612bd4565b606082019050919050565b60006020820190508181036000830152612c8581612c49565b9050919050565b7f4e487b7100000000000000000000000000000000000000000000000000000000600052603260045260246000fd5b6000612cc682612359565b91507fffffffffffffffffffffffffffffffffffffffffffffffffffffffffffffffff8203612cf857612cf761284b565b5b600182019050919050565b7f546f6b656e20726573657276657320776173206e6f7420300000000000000000600082015250565b6000612d396018836125e6565b9150612d4482612d03565b602082019050919050565b60006020820190508181036000830152612d6881612d2c565b9050919050565b7f45544820726573657276657320776173206e6f7420302e000000000000000000600082015250565b6000612da56017836125e6565b9150612db082612d6f565b602082019050919050565b60006020820190508181036000830152612dd481612d98565b9050919050565b7f4e6565642065746820746f2063726561746520706f6f6c2e0000000000000000600082015250565b6000612e116018836125e6565b9150612e1c82612ddb565b602082019050919050565b60006020820190508181036000830152612e4081612e04565b9050919050565b600081519050612e5681612363565b92915050565b600060208284031215612e7257612e71612354565b5b6000612e8084828501612e47565b91505092915050565b7f4e6f74206861766520656e6f75676820746f6b656e7320746f2063726561746560008201527f2074686520706f6f6c0000000000000000000000000000000000000000000000602082015250565b6000612ee56029836125e6565b9150612ef082612e89565b604082019050919050565b60006020820190508181036000830152612f1481612ed8565b9050919050565b7f4e65656420746f6b656e7320746f2063726561746520706f6f6c2e0000000000600082015250565b6000612f51601b836125e6565b9150612f5c82612f1b565b602082019050919050565b60006020820190508181036000830152612f8081612f44565b9050919050565b6000606082019050612f9c600083018661248d565b612fa9602083018561248d565b612fb6604083018461254a565b949350505050565b7f52656d61696e696e672062616c616e6365206f66207468652073656e6420697360008201527f206e6f7420656e6f75676820746f2070726f7669646520746865206c6971756960208201527f6469747900000000000000000000000000000000000000000000000000000000604082015250565b60006130406044836125e6565b915061304b82612fbe565b606082019050919050565b6000602082019050818103600083015261306f81613033565b9050919050565b7f4574682070726963652068617320696e63726561736564207369676e6966696360008201527f616e746c792e20536c6970706167652061626f72747320746865207472616e7360208201527f616374696f6e0000000000000000000000000000000000000000000000000000604082015250565b60006130f86046836125e6565b915061310382613076565b606082019050919050565b60006020820190508181036000830152613127816130eb565b9050919050565b7f4f776e61626c653a206e6577206f776e657220697320746865207a65726f206160008201527f6464726573730000000000000000000000000000000000000000000000000000602082015250565b600061318a6026836125e6565b91506131958261312e565b604082019050919050565b600060208201905081810360008301526131b98161317d565b9050919050565b7f4e487b7100000000000000000000000000000000000000000000000000000000600052602260045260246000fd5b6000600282049050600182168061320757607f821691505b60208210810361321a576132196131c0565b5b50919050565b6000602082019050613235600083018461254a565b92915050565b7f4f776e61626c653a2063616c6c6572206973206e6f7420746865206f776e6572600082015250565b60006132716020836125e6565b915061327c8261323b565b602082019050919050565b600060208201905081810360008301526132a081613264565b9050919050565b7f73706563696669656420696e646578206973206c6172676572207468616e207460008201527f6865206e756d626572206f66206c707300000000000000000000000000000000602082015250565b60006133036030836125e6565b915061330e826132a7565b604082019050919050565b60006020820190508181036000830152613332816132f6565b9050919050565b7f4e487b7100000000000000000000000000000000000000000000000000000000600052603160045260246000fd5b7f4e487b7100000000000000000000000000000000000000000000000000000000600052605160045260246000fdfea2646970667358221220393ac31e99b4b796b07e16a1fd1ba727a43113538e834a97b4fc06fcaddf686964736f6c63430008110033",
  "linkReferences": {},
  "deployedLinkReferences": {}
}