{
  "_format": "hh-sol-artifact-1",
  "contractName": "Splitwise",
  "sourceName": "contracts/mycontract.sol",
  "abi": [
    {
      "anonymous": false,
      "inputs": [
        {
          "indexed": false,
          "internalType": "address",
          "name": "from",
          "type": "address"
        },
        {
          "indexed": false,
          "internalType": "address",
          "name": "to",
          "type": "address"
        },
        {
          "indexed": false,
          "internalType": "uint32",
          "name": "amount",
          "type": "uint32"
        }
      ],
      "name": "New_IOU",
      "type": "event"
    },
    {
      "inputs": [
        {
          "internalType": "address",
          "name": "creditor",
          "type": "address"
        },
        {
          "internalType": "uint32",
          "name": "amount",
          "type": "uint32"
        },
        {
          "internalType": "address[]",
          "name": "path",
          "type": "address[]"
        }
      ],
      "name": "add_IOU",
      "outputs": [],
      "stateMutability": "nonpayable",
      "type": "function"
    },
    {
      "inputs": [
        {
          "internalType": "address",
          "name": "debtor",
          "type": "address"
        },
        {
          "internalType": "address",
          "name": "creditor",
          "type": "address"
        }
      ],
      "name": "lookup",
      "outputs": [
        {
          "internalType": "uint32",
          "name": "ret",
          "type": "uint32"
        }
      ],
      "stateMutability": "view",
      "type": "function"
    }
  ],
  "bytecode": "0x608060405234801561001057600080fd5b50610e93806100206000396000f3fe608060405234801561001057600080fd5b50600436106100365760003560e01c8063713584a61461003b578063dd033b8d1461006b575b600080fd5b6100556004803603810190610050919061098e565b610087565b60405161006291906109ed565b60405180910390f35b61008560048036038101906100809190610a99565b61011e565b005b6000600160008473ffffffffffffffffffffffffffffffffffffffff1673ffffffffffffffffffffffffffffffffffffffff16815260200190815260200160002060008373ffffffffffffffffffffffffffffffffffffffff1673ffffffffffffffffffffffffffffffffffffffff16815260200190815260200160002060009054906101000a900463ffffffff16905092915050565b60008054906101000a900460ff161561016c576040517f08c379a000000000000000000000000000000000000000000000000000000000815260040161016390610b6a565b60405180910390fd5b60016000806101000a81548160ff0219169083151502179055508373ffffffffffffffffffffffffffffffffffffffff163373ffffffffffffffffffffffffffffffffffffffff16036101f4576040517f08c379a00000000000000000000000000000000000000000000000000000000081526004016101eb90610bd6565b60405180910390fd5b60006102003386610087565b63ffffffff169050808463ffffffff168261021b9190610c2f565b1161025b576040517f08c379a000000000000000000000000000000000000000000000000000000000815260040161025290610caf565b60405180910390fd5b7f792576d2e839952218b9067681bfbcb852de03c3552086d7bb083dfb439407b333868660405161028e93929190610cde565b60405180910390a1600083839050036104eb5760006102ad8633610087565b905060008163ffffffff16036102cf576102ca33878760006106b0565b6104e5565b8463ffffffff168163ffffffff1611156103a15784600160008873ffffffffffffffffffffffffffffffffffffffff1673ffffffffffffffffffffffffffffffffffffffff16815260200190815260200160002060003373ffffffffffffffffffffffffffffffffffffffff1673ffffffffffffffffffffffffffffffffffffffff16815260200190815260200160002060008282829054906101000a900463ffffffff1661037e9190610d15565b92506101000a81548163ffffffff021916908363ffffffff1602179055506104e4565b80856103ad9190610d15565b600160003373ffffffffffffffffffffffffffffffffffffffff1673ffffffffffffffffffffffffffffffffffffffff16815260200190815260200160002060008873ffffffffffffffffffffffffffffffffffffffff1673ffffffffffffffffffffffffffffffffffffffff16815260200190815260200160002060006101000a81548163ffffffff021916908363ffffffff1602179055506000600160008873ffffffffffffffffffffffffffffffffffffffff1673ffffffffffffffffffffffffffffffffffffffff16815260200190815260200160002060003373ffffffffffffffffffffffffffffffffffffffff1673ffffffffffffffffffffffffffffffffffffffff16815260200190815260200160002060006101000a81548163ffffffff021916908363ffffffff1602179055505b5b5061068f565b60006103e7905060005b6001858590506105059190610d4d565b8110156105b357600061057286868481811061052457610523610d81565b5b90506020020160208101906105399190610db0565b87876001866105489190610c2f565b81811061055857610557610d81565b5b905060200201602081019061056d9190610db0565b610087565b905060008163ffffffff161161058757600080fd5b8063ffffffff168363ffffffff16111561059f578092505b5080806105ab90610ddd565b9150506104f5565b508463ffffffff168163ffffffff1611156105cc578490505b60005b6001858590506105df9190610d4d565b8110156106605761064d8585838181106105fc576105fb610d81565b5b90506020020160208101906106119190610db0565b86866001856106209190610c2f565b8181106106305761062f610d81565b5b90506020020160208101906106459190610db0565b8460016106b0565b808061065890610ddd565b9150506105cf565b508463ffffffff168163ffffffff161461068d5761068c338783886106859190610d15565b60006106b0565b5b505b5060008060006101000a81548160ff02191690831515021790555050505050565b80156107ed5781600160008673ffffffffffffffffffffffffffffffffffffffff1673ffffffffffffffffffffffffffffffffffffffff16815260200190815260200160002060008573ffffffffffffffffffffffffffffffffffffffff1673ffffffffffffffffffffffffffffffffffffffff16815260200190815260200160002060009054906101000a900463ffffffff1661074e9190610d15565b600160008673ffffffffffffffffffffffffffffffffffffffff1673ffffffffffffffffffffffffffffffffffffffff16815260200190815260200160002060008573ffffffffffffffffffffffffffffffffffffffff1673ffffffffffffffffffffffffffffffffffffffff16815260200190815260200160002060006101000a81548163ffffffff021916908363ffffffff160217905550610920565b81600160008673ffffffffffffffffffffffffffffffffffffffff1673ffffffffffffffffffffffffffffffffffffffff16815260200190815260200160002060008573ffffffffffffffffffffffffffffffffffffffff1673ffffffffffffffffffffffffffffffffffffffff16815260200190815260200160002060009054906101000a900463ffffffff166108859190610e25565b600160008673ffffffffffffffffffffffffffffffffffffffff1673ffffffffffffffffffffffffffffffffffffffff16815260200190815260200160002060008573ffffffffffffffffffffffffffffffffffffffff1673ffffffffffffffffffffffffffffffffffffffff16815260200190815260200160002060006101000a81548163ffffffff021916908363ffffffff1602179055505b50505050565b600080fd5b600080fd5b600073ffffffffffffffffffffffffffffffffffffffff82169050919050565b600061095b82610930565b9050919050565b61096b81610950565b811461097657600080fd5b50565b60008135905061098881610962565b92915050565b600080604083850312156109a5576109a4610926565b5b60006109b385828601610979565b92505060206109c485828601610979565b9150509250929050565b600063ffffffff82169050919050565b6109e7816109ce565b82525050565b6000602082019050610a0260008301846109de565b92915050565b610a11816109ce565b8114610a1c57600080fd5b50565b600081359050610a2e81610a08565b92915050565b600080fd5b600080fd5b600080fd5b60008083601f840112610a5957610a58610a34565b5b8235905067ffffffffffffffff811115610a7657610a75610a39565b5b602083019150836020820283011115610a9257610a91610a3e565b5b9250929050565b60008060008060608587031215610ab357610ab2610926565b5b6000610ac187828801610979565b9450506020610ad287828801610a1f565b935050604085013567ffffffffffffffff811115610af357610af261092b565b5b610aff87828801610a43565b925092505092959194509250565b600082825260208201905092915050565b7f5265656e7472616e637920646574656374656400000000000000000000000000600082015250565b6000610b54601383610b0d565b9150610b5f82610b1e565b602082019050919050565b60006020820190508181036000830152610b8381610b47565b9050919050565b7f437265646974206f6e6573656c66206973206e6f7420616c6c6f776564000000600082015250565b6000610bc0601d83610b0d565b9150610bcb82610b8a565b602082019050919050565b60006020820190508181036000830152610bef81610bb3565b9050919050565b6000819050919050565b7f4e487b7100000000000000000000000000000000000000000000000000000000600052601160045260246000fd5b6000610c3a82610bf6565b9150610c4583610bf6565b9250828201905080821115610c5d57610c5c610c00565b5b92915050565b7f4f766572666c6f77206465746563746564000000000000000000000000000000600082015250565b6000610c99601183610b0d565b9150610ca482610c63565b602082019050919050565b60006020820190508181036000830152610cc881610c8c565b9050919050565b610cd881610950565b82525050565b6000606082019050610cf36000830186610ccf565b610d006020830185610ccf565b610d0d60408301846109de565b949350505050565b6000610d20826109ce565b9150610d2b836109ce565b9250828203905063ffffffff811115610d4757610d46610c00565b5b92915050565b6000610d5882610bf6565b9150610d6383610bf6565b9250828203905081811115610d7b57610d7a610c00565b5b92915050565b7f4e487b7100000000000000000000000000000000000000000000000000000000600052603260045260246000fd5b600060208284031215610dc657610dc5610926565b5b6000610dd484828501610979565b91505092915050565b6000610de882610bf6565b91507fffffffffffffffffffffffffffffffffffffffffffffffffffffffffffffffff8203610e1a57610e19610c00565b5b600182019050919050565b6000610e30826109ce565b9150610e3b836109ce565b9250828201905063ffffffff811115610e5757610e56610c00565b5b9291505056fea2646970667358221220ba6111e2ce8bf390139d2e3231a4a3ce6c876d1dc710939087d1566994b0aa6664736f6c63430008110033",
  "linkReferences": {},
  "deployedLinkReferences": {}
}