{
  "_format": "hh-sol-artifact-1",
  "contractName": "Splitwise",
  "sourceName": "contracts/mycontract.sol",
  "abi": [
    {
      "anonymous": false,
      "inputs": [
        {
          "indexed": false,
          "internalType": "address",
          "name": "ad",
          "type": "address"
        }
      ],
      "name": "NewCall",
      "type": "event"
    },
    {
      "inputs": [
        {
          "internalType": "address",
          "name": "creditor",
          "type": "address"
        },
        {
          "internalType": "uint32",
          "name": "amount",
          "type": "uint32"
        },
        {
          "internalType": "bool",
          "name": "reverse",
          "type": "bool"
        }
      ],
      "name": "add_IOU",
      "outputs": [],
      "stateMutability": "nonpayable",
      "type": "function"
    },
    {
      "inputs": [
        {
          "internalType": "address",
          "name": "debtor",
          "type": "address"
        },
        {
          "internalType": "address",
          "name": "creditor",
          "type": "address"
        }
      ],
      "name": "lookup",
      "outputs": [
        {
          "internalType": "uint32",
          "name": "ret",
          "type": "uint32"
        }
      ],
      "stateMutability": "view",
      "type": "function"
    }
  ],
  "bytecode": "0x608060405234801561001057600080fd5b506107e0806100206000396000f3fe608060405234801561001057600080fd5b50600436106100365760003560e01c80632a80c8e01461003b578063713584a614610057575b600080fd5b610055600480360381019061005091906105cd565b610087565b005b610071600480360381019061006c9190610620565b61032d565b60405161007e919061066f565b60405180910390f35b60008060003373ffffffffffffffffffffffffffffffffffffffff1673ffffffffffffffffffffffffffffffffffffffff168152602001908152602001600020905060005b818054905081101561025f578473ffffffffffffffffffffffffffffffffffffffff168282815481106101025761010161068a565b5b9060005260206000200160000160009054906101000a900473ffffffffffffffffffffffffffffffffffffffff1673ffffffffffffffffffffffffffffffffffffffff160361024c5782156101d057838282815481106101655761016461068a565b5b9060005260206000200160000160149054906101000a900463ffffffff1661018d91906106e8565b8282815481106101a05761019f61068a565b5b9060005260206000200160000160146101000a81548163ffffffff021916908363ffffffff16021790555061024b565b838282815481106101e4576101e361068a565b5b9060005260206000200160000160149054906101000a900463ffffffff1661020c9190610720565b82828154811061021f5761021e61068a565b5b9060005260206000200160000160146101000a81548163ffffffff021916908363ffffffff1602179055505b5b808061025790610762565b9150506100cc565b508060405180604001604052808673ffffffffffffffffffffffffffffffffffffffff1681526020018563ffffffff168152509080600181540180825580915050600190039060005260206000200160009091909190915060008201518160000160006101000a81548173ffffffffffffffffffffffffffffffffffffffff021916908373ffffffffffffffffffffffffffffffffffffffff16021790555060208201518160000160146101000a81548163ffffffff021916908363ffffffff160217905550505050505050565b6000806000808573ffffffffffffffffffffffffffffffffffffffff1673ffffffffffffffffffffffffffffffffffffffff168152602001908152602001600020805480602002602001604051908101604052809291908181526020016000905b82821015610438578382906000526020600020016040518060400160405290816000820160009054906101000a900473ffffffffffffffffffffffffffffffffffffffff1673ffffffffffffffffffffffffffffffffffffffff1673ffffffffffffffffffffffffffffffffffffffff1681526020016000820160149054906101000a900463ffffffff1663ffffffff1663ffffffff16815250508152602001906001019061038e565b50505050905060008151036104515760009150506104f0565b60005b81518110156104e9578373ffffffffffffffffffffffffffffffffffffffff168282815181106104875761048661068a565b5b60200260200101516000015173ffffffffffffffffffffffffffffffffffffffff16036104d6578181815181106104c1576104c061068a565b5b602002602001015160200151925050506104f0565b80806104e190610762565b915050610454565b5060009150505b92915050565b600080fd5b600073ffffffffffffffffffffffffffffffffffffffff82169050919050565b6000610526826104fb565b9050919050565b6105368161051b565b811461054157600080fd5b50565b6000813590506105538161052d565b92915050565b600063ffffffff82169050919050565b61057281610559565b811461057d57600080fd5b50565b60008135905061058f81610569565b92915050565b60008115159050919050565b6105aa81610595565b81146105b557600080fd5b50565b6000813590506105c7816105a1565b92915050565b6000806000606084860312156105e6576105e56104f6565b5b60006105f486828701610544565b935050602061060586828701610580565b9250506040610616868287016105b8565b9150509250925092565b60008060408385031215610637576106366104f6565b5b600061064585828601610544565b925050602061065685828601610544565b9150509250929050565b61066981610559565b82525050565b60006020820190506106846000830184610660565b92915050565b7f4e487b7100000000000000000000000000000000000000000000000000000000600052603260045260246000fd5b7f4e487b7100000000000000000000000000000000000000000000000000000000600052601160045260246000fd5b60006106f382610559565b91506106fe83610559565b9250828203905063ffffffff81111561071a576107196106b9565b5b92915050565b600061072b82610559565b915061073683610559565b9250828201905063ffffffff811115610752576107516106b9565b5b92915050565b6000819050919050565b600061076d82610758565b91507fffffffffffffffffffffffffffffffffffffffffffffffffffffffffffffffff820361079f5761079e6106b9565b5b60018201905091905056fea2646970667358221220dfa7da18d718352a23f9d999b9bd4f334c4f68c92182eedbdcff06f52e35569764736f6c63430008110033",
  "linkReferences": {},
  "deployedLinkReferences": {}
}