{
  "_format": "hh-sol-artifact-1",
  "contractName": "Splitwise",
  "sourceName": "contracts/mycontract.sol",
  "abi": [
    {
      "anonymous": false,
      "inputs": [
        {
          "indexed": false,
          "internalType": "address",
          "name": "from",
          "type": "address"
        },
        {
          "indexed": false,
          "internalType": "address",
          "name": "to",
          "type": "address"
        },
        {
          "indexed": false,
          "internalType": "uint32",
          "name": "amount",
          "type": "uint32"
        }
      ],
      "name": "New_IOU",
      "type": "event"
    },
    {
      "inputs": [
        {
          "internalType": "address",
          "name": "creditor",
          "type": "address"
        },
        {
          "internalType": "uint32",
          "name": "amount",
          "type": "uint32"
        },
        {
          "internalType": "address[]",
          "name": "path",
          "type": "address[]"
        }
      ],
      "name": "add_IOU",
      "outputs": [],
      "stateMutability": "nonpayable",
      "type": "function"
    },
    {
      "inputs": [
        {
          "internalType": "address",
          "name": "debtor",
          "type": "address"
        },
        {
          "internalType": "address",
          "name": "creditor",
          "type": "address"
        }
      ],
      "name": "lookup",
      "outputs": [
        {
          "internalType": "uint32",
          "name": "ret",
          "type": "uint32"
        }
      ],
      "stateMutability": "view",
      "type": "function"
    }
  ],
  "bytecode": "0x608060405234801561001057600080fd5b50610ac9806100206000396000f3fe608060405234801561001057600080fd5b50600436106100365760003560e01c8063713584a61461003b578063dd033b8d1461006b575b600080fd5b61005560048036038101906100509190610797565b610087565b60405161006291906107f6565b60405180910390f35b610085600480360381019061008091906108a2565b610250565b005b6000806000808573ffffffffffffffffffffffffffffffffffffffff1673ffffffffffffffffffffffffffffffffffffffff168152602001908152602001600020805480602002602001604051908101604052809291908181526020016000905b82821015610192578382906000526020600020016040518060400160405290816000820160009054906101000a900473ffffffffffffffffffffffffffffffffffffffff1673ffffffffffffffffffffffffffffffffffffffff1673ffffffffffffffffffffffffffffffffffffffff1681526020016000820160149054906101000a900463ffffffff1663ffffffff1663ffffffff1681525050815260200190600101906100e8565b50505050905060008151036101ab57600091505061024a565b60005b8151811015610243578373ffffffffffffffffffffffffffffffffffffffff168282815181106101e1576101e0610916565b5b60200260200101516000015173ffffffffffffffffffffffffffffffffffffffff16036102305781818151811061021b5761021a610916565b5b6020026020010151602001519250505061024a565b808061023b9061097e565b9150506101ae565b5060009150505b92915050565b60008282905003610364576000803373ffffffffffffffffffffffffffffffffffffffff1673ffffffffffffffffffffffffffffffffffffffff16815260200190815260200160002060405180604001604052808673ffffffffffffffffffffffffffffffffffffffff1681526020018563ffffffff168152509080600181540180825580915050600190039060005260206000200160009091909190915060008201518160000160006101000a81548173ffffffffffffffffffffffffffffffffffffffff021916908373ffffffffffffffffffffffffffffffffffffffff16021790555060208201518160000160146101000a81548163ffffffff021916908363ffffffff1602179055505050610729565b60006103e7905060005b60018484905061037e91906109c6565b81101561042c5760006103eb85858481811061039d5761039c610916565b5b90506020020160208101906103b291906109fa565b86866001866103c19190610a27565b8181106103d1576103d0610916565b5b90506020020160208101906103e691906109fa565b610087565b905060008163ffffffff161161040057600080fd5b8063ffffffff168363ffffffff161115610418578092505b5080806104249061097e565b91505061036e565b508363ffffffff168163ffffffff161115610445578390505b60005b60018484905061045891906109c6565b81101561060357600080600086868581811061047757610476610916565b5b905060200201602081019061048c91906109fa565b73ffffffffffffffffffffffffffffffffffffffff1673ffffffffffffffffffffffffffffffffffffffff168152602001908152602001600020905060005b81805490508110156105ee5785856001856104e69190610a27565b8181106104f6576104f5610916565b5b905060200201602081019061050b91906109fa565b73ffffffffffffffffffffffffffffffffffffffff1682828154811061053457610533610916565b5b9060005260206000200160000160009054906101000a900473ffffffffffffffffffffffffffffffffffffffff1673ffffffffffffffffffffffffffffffffffffffff16036105db578382828154811061059157610590610916565b5b9060005260206000200160000160148282829054906101000a900463ffffffff166105bc9190610a5b565b92506101000a81548163ffffffff021916908363ffffffff1602179055505b80806105e69061097e565b9150506104cb565b505080806105fb9061097e565b915050610448565b508363ffffffff168163ffffffff1614610727576000803373ffffffffffffffffffffffffffffffffffffffff1673ffffffffffffffffffffffffffffffffffffffff16815260200190815260200160002060405180604001604052808773ffffffffffffffffffffffffffffffffffffffff16815260200183876106889190610a5b565b63ffffffff168152509080600181540180825580915050600190039060005260206000200160009091909190915060008201518160000160006101000a81548173ffffffffffffffffffffffffffffffffffffffff021916908373ffffffffffffffffffffffffffffffffffffffff16021790555060208201518160000160146101000a81548163ffffffff021916908363ffffffff16021790555050505b505b50505050565b600080fd5b600080fd5b600073ffffffffffffffffffffffffffffffffffffffff82169050919050565b600061076482610739565b9050919050565b61077481610759565b811461077f57600080fd5b50565b6000813590506107918161076b565b92915050565b600080604083850312156107ae576107ad61072f565b5b60006107bc85828601610782565b92505060206107cd85828601610782565b9150509250929050565b600063ffffffff82169050919050565b6107f0816107d7565b82525050565b600060208201905061080b60008301846107e7565b92915050565b61081a816107d7565b811461082557600080fd5b50565b60008135905061083781610811565b92915050565b600080fd5b600080fd5b600080fd5b60008083601f8401126108625761086161083d565b5b8235905067ffffffffffffffff81111561087f5761087e610842565b5b60208301915083602082028301111561089b5761089a610847565b5b9250929050565b600080600080606085870312156108bc576108bb61072f565b5b60006108ca87828801610782565b94505060206108db87828801610828565b935050604085013567ffffffffffffffff8111156108fc576108fb610734565b5b6109088782880161084c565b925092505092959194509250565b7f4e487b7100000000000000000000000000000000000000000000000000000000600052603260045260246000fd5b7f4e487b7100000000000000000000000000000000000000000000000000000000600052601160045260246000fd5b6000819050919050565b600061098982610974565b91507fffffffffffffffffffffffffffffffffffffffffffffffffffffffffffffffff82036109bb576109ba610945565b5b600182019050919050565b60006109d182610974565b91506109dc83610974565b92508282039050818111156109f4576109f3610945565b5b92915050565b600060208284031215610a1057610a0f61072f565b5b6000610a1e84828501610782565b91505092915050565b6000610a3282610974565b9150610a3d83610974565b9250828201905080821115610a5557610a54610945565b5b92915050565b6000610a66826107d7565b9150610a71836107d7565b9250828203905063ffffffff811115610a8d57610a8c610945565b5b9291505056fea2646970667358221220d32915f3b5c70a54adbff7f2ce965cf6b749b23d89e60a34c0b9f7358757156264736f6c63430008110033",
  "linkReferences": {},
  "deployedLinkReferences": {}
}